:100000000C9462000C948A000C948A000C948A0070
:100010000C948A000C948A000C948A000C948A0038
:100020000C948A000C948A000C948A000C948A0028
:100030000C948A000C948A000C948A000C948A0018
:100040000C941B050C948A000C948A000C948A0072
:100050000C948A000C948A000C948A000C948A00F8
:100060000C948A000C948A000000000024002700F1
:100070002A0000000000250028002B0000000000DE
:1000800023002600290004040404040404040202DA
:100090000202020203030303030301020408102007
:1000A0004080010204081020010204081020000012
:1000B0000007000201000003040600000000000029
:1000C0000000A30211241FBECFEFD8E0DEBFCDBFDA
:1000D00012E0A0E0B1E0E6EAFDE002C005900D927A
:1000E000A83FB107D9F715E0A8EFB2E001C01D9213
:1000F000A533B107E1F710E0C4ECD0E004C02297CB
:10010000FE010E94CD06C23CD107C9F70E9414052A
:100110000C94D1060C9400000F931F93CF93DF93A0
:10012000689F8001699F100D789F100D1124C801F0
:100130000E94A800EC01009729F060E070E0A8019F
:100140000E94AA01CE01DF91CF911F910F910895D6
:10015000CF93DF93BC018230910510F462E070E030
:10016000A0913305B0913405ED01E0E0F0E040E00E
:1001700050E021C0888199818617970769F48A81A8
:100180009B81309719F09383828304C09093340548
:1001900080933305FE0134C06817790738F44115A0
:1001A000510519F08417950708F4AC01FE018A8106
:1001B0009B819C01E9012097E9F641155105A9F1C0
:1001C000CA01861B970B049708F4BA01E0E0F0E03F
:1001D0002AC08D919C91119784179507F9F46417A3
:1001E000750781F412968D919C911397309719F0B1
:1001F0009383828304C09093340580933305FD017B
:1002000032964CC0CA01861B970BFD01E80FF91FFF
:100210006193719302978D939C9340C0FD018281FD
:1002200093819C01D9011097A1F68091310590919D
:100230003205892B41F48091EC029091ED0290936C
:100240003205809331054091EE025091EF02411545
:10025000510541F44DB75EB78091EA029091EB02EF
:10026000481B590B2091310530913205CA01821B80
:10027000930B8617970780F0AB014E5F5F4F841793
:10028000950750F0420F531F5093320540933105AC
:10029000F9016193719302C0E0E0F0E0CF01DF91DA
:1002A000CF910895CF93DF93009709F450C0EC01EC
:1002B00022971B821A82A0913305B09134051097C2
:1002C00009F140E050E0AC17BD0708F1BB83AA83F9
:1002D000FE0121913191E20FF31FAE17BF0779F4B0
:1002E0008D919C911197280F391F2E5F3F4F3983B5
:1002F000288312968D919C9113979B838A83411535
:10030000510571F4D0933405C093330520C0129683
:100310008D919C911397AD01009711F0DC01D3CF23
:10032000FA01D383C28321913191E20FF31FCE17DB
:10033000DF0769F488819981280F391F2E5F3F4FAD
:10034000FA01318320838A819B8193838283DF91A9
:10035000CF910895DC0101C06D9341505040E0F70A
:1003600008951BB88FEF8AB984B18E6284B980E595
:100370008CBD1EBC0DB407FEFDCF1EBC0DB407FE28
:10038000FDCF1EBC0DB407FEFDCF1EBC0DB407FE95
:10039000FDCF299A29980895CF93DF93EC0140E08F
:1003A00050E0B0EA34C0E881F98120E0222311F462
:1003B000BBB909C0203110F42BB905C0822F8F5072
:1003C0008295807F8BB980E090E0000001968233B7
:1003D0009105D9F7A0813181928183818EBD0DB4C1
:1003E00007FEFDCF9EBD0DB407FEFDCF3EBD0DB493
:1003F00007FEFDCF1BB8AEBD0DB407FEFDCF299A99
:1004000029982F5F3496293189F64F5F5F4F461741
:10041000570749F6DF91CF910895FC0150E0440F52
:10042000551F440F551F0190F081E02DE40FF51F7B
:1004300021E030E040E050E004C0220F331F441FB1
:10044000551F6A95D2F780819181A281B381822B59
:10045000932BA42BB52B80839183A283B383089520
:10046000FC0150E0440F551F440F551F0190F081CF
:10047000E02DE40FF51F21E030E040E050E004C043
:10048000220F331F441F551F6A95D2F720953095D0
:100490004095509580819181A281B38182239323DD
:1004A000A423B52380839183A283B3830895FC01A1
:1004B000A081B18184E6FD0111928A95E9F7089542
:1004C0000F931F938C0189E190E064E070E00E943B
:1004D0008C00F801808391831F910F910895FC0196
:1004E000DB014091F0045091F1045183408320914D
:1004F000F2023091F3028091F0029091F102BC017E
:10050000269FC001279F900D369F900D1124840FC8
:10051000951F9093F1048093F00491E010C08E3207
:1005200039F0883759F4FA01E450FD4F908304C044
:10053000FA01E450FD4F10824F5F5F4F11968C918E
:10054000882369F7089588EF92E00E94600282EFA5
:1005500094E060E071E00E946F0284EF94E061E358
:1005600071E00E946F0286EF94E062E671E00E9403
:100570006F0288EF94E063E971E00E946F028AEFF6
:1005800094E064EC71E00E946F028CEF94E065EF00
:1005900071E00E946F028EEF94E066E272E00E94CA
:1005A0006F0280E095E067E572E00E946F0282E0F2
:1005B00095E068E872E00E946F0284E095E069EBE4
:1005C00072E00E946F028091F2049091F304909384
:1005D0000705809306058091F4049091F5049093AB
:1005E0000905809308058091F6049091F704909393
:1005F0000B0580930A058091F8049091F90490937B
:100600000D0580930C058091FA049091FB04909362
:100610000F0580930E058091FC049091FD0490934A
:100620001105809310058091FE049091FF04909332
:100630001305809312058091000590910105909318
:100640001505809314058091020590910305909300
:1006500017058093160580910405909105059093E8
:1006600019058093180588E090E090931D0580930C
:100670001C0581E090E090931F0580931E05109269
:100680002005109221051092220510922305109248
:10069000240510922505109226051092270588E062
:1006A00060E00E94AB0588E061E00E94CB05089500
:1006B0008F929F92AF92BF92CF92DF92EF92FF9272
:1006C0000F931F93CF93DF934B015A01FC01EE0F61
:1006D000FF1FEA5FFA4FC080D180C091F202D09133
:1006E000F302C60FD71F23C0F7018081882339F09A
:1006F00088EF92E0602F4C2F0E940D0206C088EF19
:1007000092E0602F4C2F0E9430020894C11CD11C33
:100710000F5F1F4F0894E11CF11C8091F002909133
:10072000F1028A0D9B1D08171907F4F221978C1608
:100730009D0644F48CEFE82E82E0F82EEC0CFD1CB4
:100740008501EBCFDF91CF911F910F91FF90EF903B
:10075000DF90CF90BF90AF909F908F9008950F93B0
:100760001F9300E00CC088EF92E0612F402F0E94A1
:100770000D021F5F1931B9F70F5F093111F010E059
:10078000F2CF88EF92E064E670E00E94CC0188EF3F
:1007900092E00E94570288EF92E064E670E00E94C7
:1007A000CC011F910F9108958F929F92AF92BF92AB
:1007B000CF92DF92EF92FF920F931F93CF93DF932D
:1007C0000E94630528EE33E040E050E00E947A0684
:1007D00079018A0180911C050E941806EC0100979E
:1007E00011F4CC240AC0CC2480911E0590911F05E1
:1007F000C817D90711F0CC24C39420911E0530915D
:100800001F058091200590912105A0912205B091AE
:100810002305181619061A061B065CF40E946305C8
:100820006093200570932105809322059093230502
:1008300016C0232BA1F4209791F40E946305E0E2F7
:10084000F5E03496609324057183828393836093EB
:100850002005709321058093220590932305D09362
:100860001F05C0931E058091200590912105A09140
:100870002205B09123052091240530912505409152
:10088000260550912705CC2019F480E090E01AC08D
:100890001092200510922105109222051092230536
:1008A0001092240510922505109226051092270516
:1008B000821B930B895E93401CF481E090E002C0A0
:1008C00082E090E08130910579F00297A9F480915F
:1008D000F6029091F70262E070E00E946706709362
:1008E0001B0560931A0508C08091F6029091F702EB
:1008F00090931B0580931A058091F4029091F50264
:10090000AA2797FDA095BA2F8E159F05A007B107BE
:100910000CF06AC0F092F502E092F40220911A0500
:1009200030911B0537FF03C00E94AF0363C0C901AC
:100930006CE370E00E9467067B0184EC9FEF689F88
:100940005001699FB00C789FB00C1124A20EB31E09
:10095000CB016AE070E00E9467068B01C5016AE086
:1009600070E00E9467066B01C80168E070E040E03B
:1009700050E00E94580326EF822E2FEF922E089D02
:10098000C001099D900D189D900D11248E0D9F1D85
:1009900068E070E046E050E00E945803C60168E05D
:1009A00070E04DE050E00E945803C89CC001C99C13
:1009B000900DD89C900D11248A0D9B1D68E070E06D
:1009C00043E150E00E94580388EF92E064E670E053
:1009D0000E94CC0180911A0590911B05019790937C
:1009E0001B0580931A0506C088EF92E064E670E06C
:1009F0000E94CC01DF91CF911F910F91FF90EF905A
:100A0000DF90CF90BF90AF909F908F90089588EF28
:100A100092E00E94B1018091F6029091F7029093CA
:100A20001B0580931A0508950E9471050E94070511
:100A30000E94D403FDCF1F920F920FB60F92112484
:100A40002F933F938F939F93AF93BF9380912C05E8
:100A500090912D05A0912E05B0912F053091300574
:100A60000196A11DB11D232F2D5F2D3720F02D578D
:100A70000196A11DB11D2093300580932C05909304
:100A80002D05A0932E05B0932F05809128059091F8
:100A90002905A0912A05B0912B050196A11DB11D34
:100AA0008093280590932905A0932A05B0932B05E0
:100AB000BF91AF919F918F913F912F910F900FBE5A
:100AC0000F901F9018958FB7F89420912C053091B6
:100AD0002D0540912E0550912F058FBFB901CA01F8
:100AE0000895789484B5826084BD84B5816084BDA6
:100AF00085B5826085BD85B5816085BDEEE6F0E097
:100B0000808181608083E1E8F0E080818260808381
:100B1000808181608083E0E8F0E080818160808373
:100B2000E1EBF0E0808184608083E0EBF0E08081A5
:100B300081608083EAE7F0E0808184608083808147
:100B400082608083808181608083808180688083EF
:100B50001092C1000895282F30E0C90186569F4F9A
:100B6000FC0194912A573F4FF9018491882391F019
:100B7000E82FF0E0EE0FFF1FE859FF4FA591B49169
:100B8000662329F48C91909589238C9308958C91F8
:100B9000892B8C930895482F50E0CA0182559F4FAE
:100BA000FC012491CA0186569F4FFC0194914A573B
:100BB0005F4FFA0134913323D1F1222331F12330F5
:100BC00021F4809180008F7705C0243031F480912A
:100BD00080008F7D8093800018C0213019F484B587
:100BE0008F7704C0223021F484B58F7D84BD0DC081
:100BF000263021F48091B0008F7705C0273029F48A
:100C00008091B0008F7D8093B000E32FF0E0EE0F75
:100C1000FF1FEE58FF4FA591B491662329F48C91E4
:100C2000909589238C9308958C91892B8C930895AA
:100C3000682F70E0CB0182559F4FFC012491CB01BE
:100C400086569F4FFC0144916A577F4FFB01949158
:100C5000992319F420E030E038C0222331F1233009
:100C600021F4809180008F7705C0243031F4809189
:100C700080008F7D8093800018C0213019F484B5E6
:100C80008F7704C0223021F484B58F7D84BD0DC0E0
:100C9000263021F48091B0008F7705C0273029F4E9
:100CA0008091B0008F7D8093B000892F90E0880FF5
:100CB000991F84589F4FFC01A591B4918C9120E01D
:100CC00030E0842311F021E030E0C901089597FB62
:100CD000092E07260AD077FD04D027D006D00020A1
:100CE0001AF4709561957F4F0895F6F79095819568
:100CF0009F4F089597FB092E05260ED057FD04D06F
:100D000028D00AD0001C38F4509540953095219594
:100D10003F4F4F4F5F4F0895F6F790958095709530
:100D200061957F4F8F4F9F4F0895AA1BBB1B51E1C9
:100D300007C0AA1FBB1FA617B70710F0A61BB70B4B
:100D4000881F991F5A95A9F780959095BC01CD01F0
:100D50000895A1E21A2EAA1BBB1BFD010DC0AA1FFC
:100D6000BB1FEE1FFF1FA217B307E407F50720F014
:100D7000A21BB30BE40BF50B661F771F881F991F8F
:100D80001A9469F760957095809590959B01AC01D8
:100D9000BD01CF010895EE0FFF1F0590F491E02DE6
:060DA0000994F894FFCF56
:100DA6002E787878782E2078782E2E787820787895
:100DB6002E2E78782078782E2E78782078782E2E19
:100DC60078782078782E2E7878202E787878782E75
:100DD600002E2E2E78782E202E2E2E78782E202E4F
:100DE6002E2E78782E202E2E2E78782E202E2E2E11
:100DF60078782E202E2E7878782E202E2E2E787823
:100E06002E007878787878782078782E2E2E2E20F6
:100E16002E78782E2E2E202E2E7878782E202E2E96
:100E26002E2E78782078782E2E7878202E7878785E
:100E3600782E002E787878782E2078782E2E78786E
:100E4600202E2E2E2E7878202E2E7878782E202E74
:100E56002E2E2E78782078782E2E7878202E787878
:100E660078782E002E2E2E78782E202E2E2E78781C
:100E76002E2078787878787820782E2E78782E201C
:100E86002E782E78782E202E2E7878782E202E2EDC
:100E96002E78782E002E787878782E202E2E2E2EEC
:100EA6007878202E2E2E2E7878202E787878782E28
:100EB600202E78782E2E2E202E78782E2E2E202E4E
:100EC6007878787878002E787878782E2078782E4A
:100ED6002E78782078782E2E78782078787878781A
:100EE6002E2078782E2E2E2E202E78782E2E2E201E
:100EF6002E2E7878782E002E2E78782E2E202E2ED6
:100F060078782E2E202E2E78782E2E202E2E2E78A5
:100F1600782E202E2E2E78782E202E2E2E2E787895
:100F260020787878787878002E787878782E2078F7
:100F3600782E2E78782078782E2E7878202E78784D
:100F460078782E2078782E2E78782078782E2E783D
:100F560078202E787878782E002E7878782E2E20A5
:100F66002E2E2E78782E202E2E2E2E7878202E7845
:100F7600787878782078782E2E78782078782E2EC3
:100F86007878202E787878782E00200035050000B5
:080F96000600070001005802EB
:00000001FF
