:100000000C9435000C945D000C945D000C945D0024
:100010000C945D000C945D000C945D000C945D00EC
:100020000C945D000C945D000C945D000C945D00DC
:100030000C945D000C945D000C945D000C945D00CC
:100040000C9445050C945D000C945D000C945D00CF
:100050000C945D000C945D000C945D000C945D00AC
:100060000C945D000C945D00390211241FBECFEF8B
:10007000D8E0DEBFCDBF12E0A0E0B1E0E4E3FCE0F9
:1000800002C005900D92A433B107D9F715E0A4E39F
:10009000B2E001C01D92AD3BB107E1F710E0CAE646
:1000A000D0E004C02297FE010E941406C836D10792
:1000B000C9F70E943E050C9418060C9400000F939B
:1000C0001F93CF93DF93689F8001699F100D789FE6
:1000D000100D1124C8010E947B00EC01009729F04B
:1000E00060E070E0A8010E947D01CE01DF91CF9118
:1000F0001F910F910895CF93DF93BC01823091053A
:1001000010F462E070E0A091BB05B091BC05ED0178
:10011000E0E0F0E040E050E021C08881998186175E
:10012000970769F48A819B81309719F093838283C2
:1001300004C09093BC058093BB05FE0134C06817D2
:10014000790738F44115510519F08417950708F41B
:10015000AC01FE018A819B819C01E9012097E9F6AF
:1001600041155105A9F1CA01861B970B049708F4A4
:10017000BA01E0E0F0E02AC08D919C9111978417BC
:100180009507F9F46417750781F412968D919C9187
:100190001397309719F09383828304C09093BC0522
:1001A0008093BB05FD0132964CC0CA01861B970B9C
:1001B000FD01E80FF91F6193719302978D939C9352
:1001C00040C0FD01828193819C01D9011097A1F665
:1001D0008091B9059091BA05892B41F480912E0246
:1001E00090912F029093BA058093B9054091300207
:1001F000509131024115510541F44DB75EB78091E0
:100200002C0290912D02481B590B2091B905309179
:10021000BA05CA01821B930B8617970780F0AB01C2
:100220004E5F5F4F8417950750F0420F531F509356
:10023000BA054093B905F9016193719302C0E0E0FA
:10024000F0E0CF01DF91CF910895CF93DF93009736
:1002500009F450C0EC0122971B821A82A091BB05C1
:10026000B091BC05109709F140E050E0AC17BD0714
:1002700008F1BB83AA83FE0121913191E20FF31FA4
:10028000AE17BF0779F48D919C911197280F391FF4
:100290002E5F3F4F3983288312968D919C9113973F
:1002A0009B838A834115510571F4D093BC05C0939B
:1002B000BB0520C012968D919C911397AD010097BC
:1002C00011F0DC01D3CFFA01D383C28321913191A4
:1002D000E20FF31FCE17DF0769F488819981280F99
:1002E000391F2E5F3F4FFA01318320838A819B8122
:1002F00093838283DF91CF910895DC0101C06D93D8
:1003000041505040E0F708951BB88FEF8AB984B18F
:100310008E6284B980E58CBD1EBC0DB407FEFDCF96
:100320001EBC0DB407FEFDCF1EBC0DB407FEFDCFF5
:100330001EBC0DB407FEFDCF299A29980895CF93CE
:10034000DF93EC0140E050E0B0EA34C0E881F9818D
:1003500020E0222311F4BBB909C0203110F42BB9DD
:1003600005C0822F8F508295807F8BB980E090E00E
:100370000000019682339105D9F7A08131819281E5
:1003800083818EBD0DB407FEFDCF9EBD0DB407FE6B
:10039000FDCF3EBD0DB407FEFDCF1BB8AEBD0DB405
:1003A00007FEFDCF299A29982F5F3496293189F6C7
:1003B0004F5F5F4F4617570749F6DF91CF9108957A
:1003C000FC0150E0440F551F440F551F0190F08170
:1003D000E02DE40FF51F21E030E040E050E004C0E4
:1003E000220F331F441F551F6A95D2F780819181D8
:1003F000A281B381822B932BA42BB52B8083918375
:10040000A283B3830895FC0150E0440F551F440FAD
:10041000551F0190F081E02DE40FF51F21E030E041
:1004200040E050E004C0220F331F441F551F6A955F
:10043000D2F7209530954095509580819181A28189
:10044000B38182239323A423B52380839183A28342
:10045000B38308950F931F938C0189E190E064E0CA
:1004600070E00E945F00F801808391831F910F91DB
:100470000895A0E0B1E020E030E041E050E016C097
:100480008E3251F0883789F4F901EE0FFF1FEC5CD2
:10049000FD4F5183408307C0F901EE0FFF1FEC5C55
:1004A000FD4F118210822F5F3F4F11968C91882350
:1004B00039F7A9E1B1E020E030E041E050E016C0BA
:1004C0008E3251F0883789F4F901EE0FFF1FE45A9C
:1004D000FD4F5183408307C0F901EE0FFF1FE45A1F
:1004E000FD4F118210822F5F3F4F11968C91882310
:1004F00039F7A2E3B1E020E030E041E050E016C07F
:100500008E3251F0883789F4F901EE0FFF1FEC5756
:10051000FD4F5183408307C0F901EE0FFF1FEC57D9
:10052000FD4F118210822F5F3F4F11968C918823CF
:1005300039F7ABE4B1E020E030E041E050E016C034
:100540008E3251F0883789F4F901EE0FFF1FE45520
:10055000FD4F5183408307C0F901EE0FFF1FE455A3
:10056000FD4F118210822F5F3F4F11968C9188238F
:1005700039F7A4E6B1E020E030E041E050E016C0F9
:100580008E3251F0883789F4F901EE0FFF1FEC52DB
:10059000FD4F5183408307C0F901EE0FFF1FEC525E
:1005A000FD4F118210822F5F3F4F11968C9188234F
:1005B00039F7ADE7B1E020E030E041E050E016C0AF
:1005C0008E3251F0883789F4F901EE0FFF1FE450A5
:1005D000FD4F5183408307C0F901EE0FFF1FE45028
:1005E000FD4F118210822F5F3F4F11968C9188230F
:1005F00039F7A6E9B1E020E030E041E050E016C074
:100600008E3251F0883789F4F901EE0FFF1FEC5D4F
:10061000FC4F5183408307C0F901EE0FFF1FEC5DD3
:10062000FC4F118210822F5F3F4F11968C918823CF
:1006300039F7AFEAB1E020E030E041E050E016C029
:100640008E3251F0883789F4F901EE0FFF1FE45B19
:10065000FC4F5183408307C0F901EE0FFF1FE45B9D
:10066000FC4F118210822F5F3F4F11968C9188238F
:1006700039F7A8ECB1E020E030E041E050E016C0EE
:100680008E3251F0883789F4F901EE0FFF1FEC58D4
:10069000FC4F5183408307C0F901EE0FFF1FEC5858
:1006A000FC4F118210822F5F3F4F11968C9188234F
:1006B00039F7A1EEB1E020E030E041E050E016C0B3
:1006C0008E3251F0883789F4F901EE0FFF1FE4569E
:1006D000FC4F5183408307C0F901EE0FFF1FE45622
:1006E000FC4F118210822F5F3F4F11968C9188230F
:1006F00039F7AAEFB1E020E030E041E050E016C069
:100700008E3251F0883789F4F901EE0FFF1FEC5358
:10071000FC4F5183408307C0F901EE0FFF1FEC53DC
:10072000FC4F118210822F5F3F4F11968C918823CE
:1007300039F7A3E1B2E020E030E041E050E016C03C
:100740008E3251F0883789F4F901EE0FFF1FE45122
:10075000FC4F5183408307C0F901EE0FFF1FE451A6
:10076000FC4F118210822F5F3F4F11968C9188238E
:1007700039F784E194E00E942A02AEE1B4E0E4E8B3
:10078000F2E088E201900D928150E1F7A6E4B4E036
:10079000ECEAF2E088E201900D928150E1F7AEE6DA
:1007A000B4E0E4EDF2E088E201900D928150E1F7CF
:1007B000A6E9B4E0ECEFF2E088E201900D928150FE
:1007C000E1F7AEEBB4E0E4E2F3E088E201900D92F1
:1007D0008150E1F7A6EEB4E0ECE4F3E088E20190AA
:1007E0000D928150E1F7AEE0B5E0E4E7F3E088E296
:1007F00001900D928150E1F7A6E3B5E0ECE9F3E05A
:1008000088E201900D928150E1F7AEE5B5E0E4ECAD
:10081000F3E088E201900D928150E1F7A6E8B5E09F
:10082000ECEEF3E088E201900D928150E1F708953B
:100830004F925F926F927F928F929F92AF92BF92F0
:10084000CF92DF92EF92FF920F931F93DF93CF939C
:10085000CDB7DEB7A8970FB6F894DEBF0FBECDBFF9
:100860000E948D0528EE33E040E050E00E94D5055F
:1008700079018A0126B183B190E08170907035E0F2
:10088000880F991F3A95E1F72F71282B2093AE0519
:100890008091AF05281731F02093AF0510921D0409
:1008A00010921C048091320290913302AA2797FD86
:1008B000A095BA2F8E159F05A007B1070CF0ABC00D
:1008C000F0923302E092320220911C0430911D0418
:1008D00088E290E0289FF001299FF00D389FF00DED
:1008E0001124DE011196E25EFB4F88E201900D9229
:1008F0008150E1F780901A0490901B04C090180476
:10090000D090190484E090E0C80ED91EAA24BB241C
:100910002E010894411C511CB4E06B2E712C680C04
:10092000791C1FC0F70180819181892B31F084E10E
:1009300094E0602F4C2D0E94E0010F5F1F4F82E07A
:1009400090E0E80EF91E0615170561F7E4E0F0E007
:10095000AE0EBF1E0894C108D108F4E1AF16B10471
:1009600039F07501EE0CFF1CE40CF51C8401EBCF93
:1009700084E194E064E670E00E949F018091180495
:1009800090911904C0901A04D0901B04F4E0EF2E4B
:10099000F12CE80EF91E4C01089481089108E4E05E
:1009A000AE2EB12CAC0CBD1C0EC084E194E0602FC7
:1009B0004E2D0E9403020F5F1F4F0A151B05A9F75A
:1009C0000894E108F108E814F90411F08601F5CF64
:1009D00080911C0490911D04019690931D048093B6
:1009E0001C040A9724F010921D0410921C0480919C
:1009F000180490911904459734F480911A04909149
:100A00001B04459744F01092190410921804109298
:100A10001B0410921A04A8960FB6F894DEBF0FBEFE
:100A2000CDBFCF91DF911F910F91FF90EF90DF909D
:100A3000CF90BF90AF909F908F907F906F905F907E
:100A40004F9008951BB89FEF9AB981E085B998B986
:100A50008EEF84B917B884E194E00E94840126B136
:100A600083B190E08170907045E0880F991F4A959E
:100A7000E1F72F71282B2093AF0508950E949B0565
:100A80000E9422050E941804FDCF1F920F920FB6FC
:100A90000F9211242F933F938F939F93AF93BF9304
:100AA0008091B4059091B505A091B605B091B705B8
:100AB0003091B8050196A11DB11D232F2D5F2D3753
:100AC00020F02D570196A11DB11D2093B8058093EC
:100AD000B4059093B505A093B605B093B705809182
:100AE000B0059091B105A091B205B091B305019602
:100AF000A11DB11D8093B0059093B105A093B205DF
:100B0000B093B305BF91AF919F918F913F912F917A
:100B10000F900FBE0F901F9018958FB7F8942091EB
:100B2000B4053091B5054091B6055091B7058FBF1A
:100B3000B901CA010895789484B5826084BD84B5F2
:100B4000816084BD85B5826085BD85B5816085BDC8
:100B5000EEE6F0E0808181608083E1E8F0E0808172
:100B600082608083808181608083E0E8F0E0808122
:100B700081608083E1EBF0E0808184608083E0EB42
:100B8000F0E0808181608083EAE7F0E0808184602A
:100B90008083808182608083808181608083808186
:100BA000806880831092C100089597FB092E052666
:100BB0000ED057FD04D014D00AD0001C38F4509544
:100BC0004095309521953F4F4F4F5F4F0895F6F771
:100BD00090958095709561957F4F8F4F9F4F0895A9
:100BE000A1E21A2EAA1BBB1BFD010DC0AA1FBB1F31
:100BF000EE1FFF1FA217B307E407F50720F0A21BA3
:100C0000B30BE40BF50B661F771F881F991F1A940F
:100C100069F760957095809590959B01AC01BD0139
:100C2000CF010895EE0FFF1F0590F491E02D099478
:040C3000F894FFCF66
:100C34007878782E20782E2E78207878782E207860
:100C44002E2E78207878782E00782E2E7820782E04
:100C54002E78207878787820782E2E7820787878F6
:100C640078002E78782E20782E2E7820782E2E78E4
:100C740020782E2E78202E78782E002E2E782E2076
:100C84002E2E782E202E2E782E202E78782E202E82
:100C94002E782E0078787878202E782E2E202E2EFE
:100CA400782E20782E2E78202E78782E007878785A
:100CB4002E202E2E2E78207878782E202E2E2E7808
:100CC400207878782E002E2E782E20787878782048
:100CD400782E782E202E78782E202E2E782E0078BE
:100CE40078782E202E2E2E78207878782E20782E44
:100CF4002E2E2078787878002E78782E20782E2E54
:100D040078207878782E20782E2E2E202E78782E23
:100D1400002E2E782E202E2E782E202E2E782E2069
:100D24002E2E2E782078782E2E002E78782E20786D
:100D34002E2E78202E78782E20782E2E78202E783D
:100D4400782E002E78782E202E2E2E78202E78784D
:100D54007820782E2E78202E78782E002000BD055D
:040D6400000001008A
:00000001FF
