:100000000C9435000C945D000C945D000C945D0024
:100010000C945D000C945D000C945D000C945D00EC
:100020000C945D000C945D000C945D000C945D00DC
:100030000C945D000C945D000C945D000C945D00CC
:100040000C9467040C945D000C945D000C945D00AE
:100050000C945D000C945D000C945D000C945D00AC
:100060000C945D000C945D00760211241FBECFEF4E
:10007000D8E0DEBFCDBF12E0A0E0B1E0E6ECFAE0F0
:1000800002C005900D92A83FB107D9F715E0A8EF7F
:10009000B2E001C01D92AB32B107E1F710E0CAE651
:1000A000D0E004C02297FE010E945D05C836D1074A
:1000B000C9F70E9460040C9461050C9400000F9332
:1000C0001F93CF93DF93689F8001699F100D789FE6
:1000D000100D1124C8010E947B00EC01009729F04B
:1000E00060E070E0A8010E947D01CE01DF91CF9118
:1000F0001F910F910895CF93DF93BC01823091053A
:1001000010F462E070E0A0912905B0912A05ED019C
:10011000E0E0F0E040E050E021C08881998186175E
:10012000970769F48A819B81309719F093838283C2
:1001300004C090932A0580932905FE0134C06817F6
:10014000790738F44115510519F08417950708F41B
:10015000AC01FE018A819B819C01E9012097E9F6AF
:1001600041155105A9F1CA01861B970B049708F4A4
:10017000BA01E0E0F0E02AC08D919C9111978417BC
:100180009507F9F46417750781F412968D919C9187
:100190001397309719F09383828304C090932A05B4
:1001A00080932905FD0132964CC0CA01861B970B2E
:1001B000FD01E80FF91F6193719302978D939C9352
:1001C00040C0FD01828193819C01D9011097A1F665
:1001D0008091270590912805892B41F48091EC02AC
:1001E0009091ED0290932805809327054091EE02AF
:1001F0005091EF024115510541F44DB75EB7809122
:10020000EA029091EB02481B590B2091270530918F
:100210002805CA01821B930B8617970780F0AB0154
:100220004E5F5F4F8417950750F0420F531F509356
:10023000280540932705F9016193719302C0E0E01E
:10024000F0E0CF01DF91CF910895CF93DF93009736
:1002500009F450C0EC0122971B821A82A091290553
:10026000B0912A05109709F140E050E0AC17BD07A6
:1002700008F1BB83AA83FE0121913191E20FF31FA4
:10028000AE17BF0779F48D919C911197280F391FF4
:100290002E5F3F4F3983288312968D919C9113973F
:1002A0009B838A834115510571F4D0932A05C0932D
:1002B000290520C012968D919C911397AD0100974E
:1002C00011F0DC01D3CFFA01D383C28321913191A4
:1002D000E20FF31FCE17DF0769F488819981280F99
:1002E000391F2E5F3F4FFA01318320838A819B8122
:1002F00093838283DF91CF910895DC0101C06D93D8
:1003000041505040E0F708951BB88FEF8AB984B18F
:100310008E6284B980E58CBD1EBC0DB407FEFDCF96
:100320001EBC0DB407FEFDCF1EBC0DB407FEFDCFF5
:100330001EBC0DB407FEFDCF299A29980895CF93CE
:10034000DF93EC0140E050E0B0EA34C0E881F9818D
:1003500020E0222311F4BBB909C0203110F42BB9DD
:1003600005C0822F8F508295807F8BB980E090E00E
:100370000000019682339105D9F7A08131819281E5
:1003800083818EBD0DB407FEFDCF9EBD0DB407FE6B
:10039000FDCF3EBD0DB407FEFDCF1BB8AEBD0DB405
:1003A00007FEFDCF299A29982F5F3496293189F6C7
:1003B0004F5F5F4F4617570749F6DF91CF9108957A
:1003C000FC0150E0440F551F440F551F0190F08170
:1003D000E02DE40FF51F21E030E040E050E004C0E4
:1003E000220F331F441F551F6A95D2F780819181D8
:1003F000A281B381822B932BA42BB52B8083918375
:10040000A283B3830895FC0150E0440F551F440FAD
:10041000551F0190F081E02DE40FF51F21E030E041
:1004200040E050E004C0220F331F441F551F6A955F
:10043000D2F7209530954095509580819181A28189
:10044000B38182239323A423B52380839183A28342
:10045000B3830895FC01A081B18184E6FD0111926E
:100460008A95E9F708950F931F938C0189E190E035
:1004700064E070E00E945F00F801808391831F9127
:100480000F910895FC01DB014091F0045091F104BB
:10049000518340832091F2023091F3028091F00267
:1004A0009091F102BC01269FC001279F900D369FBD
:1004B000900D1124840F951F9093F1048093F00404
:1004C00091E010C08E3239F0883759F4FA01E450C7
:1004D000FD4F908304C0FA01E450FD4F10824F5F3E
:1004E0005F4F11968C91882369F7089588EF92E009
:1004F0000E94330282EF94E060E071E00E944202C9
:1005000084EF94E061E371E00E94420286EF94E0A0
:1005100062E671E00E94420288EF94E063E971E0D4
:100520000E9442028AEF94E064EC71E00E94420271
:100530008CEF94E065EF71E00E9442028EEF94E050
:1005400066E272E00E94420280E095E067E572E0B8
:100550000E94420282E095E068E872E00E94420256
:1005600084E095E069EB72E00E9442028091F2041F
:100570009091F30490930705809306058091F4040D
:100580009091F50490930905809308058091F604F5
:100590009091F70490930B0580930A058091F804DD
:1005A0009091F90490930D0580930C058091FA04C5
:1005B0009091FB0490930F0580930E058091FC04AD
:1005C0009091FD0490931105809310058091FE0495
:1005D0009091FF049093130580931205809100057C
:1005E0009091010590931505809314058091020563
:1005F000909103059093170580931605809104054B
:1006000090910505909319058093180508958F9290
:100610009F92AF92BF92CF92DF92EF92FF920F9391
:100620001F93CF93DF934B015A01FC01EE0FFF1F85
:10063000EA5FFA4FC080D180C091F202D091F302FC
:10064000C60FD71F23C0F7018081882339F088EFB8
:1006500092E0602F4C2F0E94E00106C088EF92E0EC
:10066000602F4C2F0E9403020894C11CD11C0F5F05
:100670001F4F0894E11CF11C8091F0029091F1024F
:100680008A0D9B1D08171907F4F221978C169D06F9
:1006900044F48CEFE82E82E0F82EEC0CFD1C850172
:1006A000EBCFDF91CF911F910F91FF90EF90DF90F3
:1006B000CF90BF90AF909F908F9008950F931F930E
:1006C00000E00CC088EF92E0612F402F0E94E00113
:1006D0001F5F1931B9F70F5F093111F010E0F2CF48
:1006E00088EF92E064E670E00E949F0188EF92E05C
:1006F0000E942A0288EF92E064E670E00E949F0167
:100700001F910F9108958F929F92AF92BF92CF92B7
:10071000DF92EF92FF920F931F930E94AF0428EE97
:1007200033E040E050E00E940A0579018A0126B1D9
:1007300083B190E08170907035E0880F991F3A95F1
:10074000E1F72F71282B20931A0580911B0528179C
:1007500051F08091F6029091F70290931D058093DD
:100760001C0520931B058091F4029091F502AA27A5
:1007700097FDA095BA2F8E159F05A007B1070CF025
:100780006AC0F092F502E092F40220911C053091CB
:100790001D0537FF03C00E945E0363C0C9016CE3FF
:1007A00070E00E94F7047B0184EC9FEF689F50018A
:1007B000699FB00C789FB00C1124A20EB31ECB0120
:1007C0006AE070E00E94F7048B01C5016AE070E006
:1007D0000E94F7046B01C80168E070E040E050E05F
:1007E0000E94070326EF822E2FEF922E089DC00154
:1007F000099D900D189D900D11248E0D9F1D68E090
:1008000070E046E050E00E940703C60168E070E037
:100810004DE050E00E940703C89CC001C99C900DA8
:10082000D89C900D11248A0D9B1D68E070E043E177
:1008300050E00E94070388EF92E064E670E00E94B7
:100840009F0180911C0590911D05019790931D05B6
:1008500080931C0506C088EF92E064E670E00E9479
:100860009F011F910F91FF90EF90DF90CF90BF906D
:10087000AF909F908F90089588EF92E00E9484013E
:100880001BB89FEF9AB981E085B998B98EEF84B90A
:1008900017B826B183B190E08170907045E0880F61
:1008A000991F4A95E1F72F71282B20931B05809102
:1008B000F6029091F70290931D0580931C05089510
:1008C0000E94BD040E943C040E948303FDCF1F923E
:1008D0000F920FB60F9211242F933F938F939F93F4
:1008E000AF93BF938091220590912305A091240599
:1008F000B0912505309126050196A11DB11D232F2C
:100900002D5F2D3720F02D570196A11DB11D20938D
:1009100026058093220590932305A0932405B09388
:10092000250580911E0590911F05A0912005B0918D
:1009300021050196A11DB11D80931E0590931F05F1
:10094000A0932005B0932105BF91AF919F918F9106
:100950003F912F910F900FBE0F901F9018958FB75A
:10096000F89420912205309123054091240550915F
:1009700025058FBFB901CA010895789484B58260B6
:1009800084BD84B5816084BD85B5826085BD85B533
:10099000816085BDEEE6F0E0808181608083E1E8E2
:1009A000F0E0808182608083808181608083E0E8E4
:1009B000F0E0808181608083E1EBF0E08081846001
:1009C0008083E0EBF0E0808181608083EAE7F0E003
:1009D0008081846080838081826080838081816067
:1009E00080838081806880831092C100089597FB86
:1009F000092E07260AD077FD04D027D006D0002084
:100A00001AF4709561957F4F0895F6F7909581954A
:100A10009F4F089597FB092E05260ED057FD04D051
:100A200028D00AD0001C38F4509540953095219577
:100A30003F4F4F4F5F4F0895F6F790958095709513
:100A400061957F4F8F4F9F4F0895AA1BBB1B51E1AC
:100A500007C0AA1FBB1FA617B70710F0A61BB70B2E
:100A6000881F991F5A95A9F780959095BC01CD01D3
:100A70000895A1E21A2EAA1BBB1BFD010DC0AA1FDF
:100A8000BB1FEE1FFF1FA217B307E407F50720F0F7
:100A9000A21BB30BE40BF50B661F771F881F991F72
:100AA0001A9469F760957095809590959B01AC01BB
:100AB000BD01CF010895EE0FFF1F0590F491E02DC9
:060AC0000994F894FFCF39
:100AC6002E787878782E2078782E2E787820787878
:100AD6002E2E78782078782E2E78782078782E2EFC
:100AE60078782078782E2E7878202E787878782E58
:100AF600002E2E2E78782E202E2E2E78782E202E32
:100B06002E2E78782E202E2E2E78782E202E2E2EF3
:100B160078782E202E2E7878782E202E2E2E787805
:100B26002E007878787878782078782E2E2E2E20D9
:100B36002E78782E2E2E202E2E7878782E202E2E79
:100B46002E2E78782078782E2E7878202E78787841
:100B5600782E002E787878782E2078782E2E787851
:100B6600202E2E2E2E7878202E2E7878782E202E57
:100B76002E2E2E78782078782E2E7878202E78785B
:100B860078782E002E2E2E78782E202E2E2E7878FF
:100B96002E2078787878787820782E2E78782E20FF
:100BA6002E782E78782E202E2E7878782E202E2EBF
:100BB6002E78782E002E787878782E202E2E2E2ECF
:100BC6007878202E2E2E2E7878202E787878782E0B
:100BD600202E78782E2E2E202E78782E2E2E202E31
:100BE6007878787878002E787878782E2078782E2D
:100BF6002E78782078782E2E7878207878787878FD
:100C06002E2078782E2E2E2E202E78782E2E2E2000
:100C16002E2E7878782E002E2E78782E2E202E2EB8
:100C260078782E2E202E2E78782E2E202E2E2E7888
:100C3600782E202E2E2E78782E202E2E2E2E787878
:100C460020787878787878002E787878782E2078DA
:100C5600782E2E78782078782E2E7878202E787830
:100C660078782E2078782E2E78782078782E2E7820
:100C760078202E787878782E002E7878782E2E2088
:100C86002E2E2E78782E202E2E2E2E7878202E7828
:100C9600787878782078782E2E78782078782E2EA6
:100CA6007878202E787878782E0020002B050000A2
:080CB6000600070001005802CE
:00000001FF
