:100000000C9435000C945D000C945D000C945D0024
:100010000C945D000C945D000C945D000C945D00EC
:100020000C945D000C945D000C945D000C945D00DC
:100030000C945D000C945D000C945D000C945D00CC
:100040000C94C0030C945D000C945D000C945D0056
:100050000C945D000C945D000C945D000C945D00AC
:100060000C945D000C945D00740211241FBECFEF50
:10007000D8E0DEBFCDBF11E0A0E0B1E0EAE2F9E0F8
:1000800002C005900D92A03DB107D9F718E0A0ED90
:10009000B1E001C01D92A339B107E1F710E0CAE653
:1000A000D0E004C02297FE010E948F04C836D10719
:1000B000C9F70E94B9030C9493040C9400000F93A9
:1000C0001F93CF93DF93689F8001699F100D789FE6
:1000D000100D1124C8010E947B00EC01009729F04B
:1000E00060E070E0A8010E947D01CE01DF91CF9118
:1000F0001F910F910895CF93DF93BC01823091053A
:1001000010F462E070E0A0919108B0919208ED01C6
:10011000E0E0F0E040E050E021C08881998186175E
:10012000970769F48A819B81309719F093838283C2
:1001300004C09093920880939108FE0134C0681720
:10014000790738F44115510519F08417950708F41B
:10015000AC01FE018A819B819C01E9012097E9F6AF
:1001600041155105A9F1CA01861B970B049708F4A4
:10017000BA01E0E0F0E02AC08D919C9111978417BC
:100180009507F9F46417750781F412968D919C9187
:100190001397309719F09383828304C09093920849
:1001A00080939108FD0132964CC0CA01861B970BC3
:1001B000FD01E80FF91F6193719302978D939C9352
:1001C00040C0FD01828193819C01D9011097A1F665
:1001D00080918F0890919008892B41F48091C30100
:1001E0009091C4019093900880938F084091C5012D
:1001F0005091C6014115510541F44DB75EB780914C
:10020000C1019091C201481B590B20918F08309178
:100210009008CA01821B930B8617970780F0AB01E9
:100220004E5F5F4F8417950750F0420F531F509356
:10023000900840938F08F9016193719302C0E0E048
:10024000F0E0CF01DF91CF910895CF93DF93009736
:1002500009F450C0EC0122971B821A82A0919108E8
:10026000B0919208109709F140E050E0AC17BD073B
:1002700008F1BB83AA83FE0121913191E20FF31FA4
:10028000AE17BF0779F48D919C911197280F391FF4
:100290002E5F3F4F3983288312968D919C9113973F
:1002A0009B838A834115510571F4D0939208C093C2
:1002B000910820C012968D919C911397AD010097E3
:1002C00011F0DC01D3CFFA01D383C28321913191A4
:1002D000E20FF31FCE17DF0769F488819981280F99
:1002E000391F2E5F3F4FFA01318320838A819B8122
:1002F00093838283DF91CF910895DC0101C06D93D8
:1003000041505040E0F708951BB88FEF8AB984B18F
:100310008E6284B980E58CBD1EBC0DB407FEFDCF96
:100320001EBC0DB407FEFDCF1EBC0DB407FEFDCFF5
:100330001EBC0DB407FEFDCF299A29980895CF93CE
:10034000DF93EC0140E050E0B0EA34C0E881F9818D
:1003500020E0222311F4BBB909C0203110F42BB9DD
:1003600005C0822F8F508295807F8BB980E090E00E
:100370000000019682339105D9F7A08131819281E5
:1003800083818EBD0DB407FEFDCF9EBD0DB407FE6B
:10039000FDCF3EBD0DB407FEFDCF1BB8AEBD0DB405
:1003A00007FEFDCF299A29982F5F3496293189F6C7
:1003B0004F5F5F4F4617570749F6DF91CF9108957A
:1003C000FC0150E0440F551F440F551F0190F08170
:1003D000E02DE40FF51F21E030E040E050E004C0E4
:1003E000220F331F441F551F6A95D2F780819181D8
:1003F000A281B381822B932BA42BB52B8083918375
:10040000A283B3830895FC0150E0440F551F440FAD
:10041000551F0190F081E02DE40FF51F21E030E041
:1004200040E050E004C0220F331F441F551F6A955F
:10043000D2F7209530954095509580819181A28189
:10044000B38182239323A423B52380839183A28342
:10045000B38308950F931F938C0189E190E064E0CA
:1004600070E00E945F00F801808391831F910F91DB
:100470000895FC01DB0140916408509165085183A7
:1004800040832091C9013091CA018091C7019091A8
:10049000C801BC01269FC001279F900D369F900D7B
:1004A0001124840F951F909365088093640821E0C0
:1004B00030E016C08E3251F0883789F4FA01EE0F21
:1004C000FF1FEC52FE4F3183208307C0FA01EE0F6D
:1004D000FF1FEC52FE4F118210824F5F5F4F11964B
:1004E0008C91882339F708950F931F9380ED91E045
:1004F0000E942A0200E011E086E698E0B8010E941E
:10050000390288E698E0B8010E9439028AE698E04C
:10051000B8010E9439028CE698E0B8010E943902C5
:100520008EE698E0B8010E94390280E798E0B801B1
:100530000E94390282E798E068E471E00E94390283
:10054000809166089091670890937508809374086D
:100550008091680890916908909377088093760855
:1005600080916A0890916B0890937908809378083D
:1005700080916C0890916D0890937B0880937A0825
:1005800080916E0890916F0890937D0880937C080D
:10059000809170089091710890937F0880937E08F5
:1005A00080917208909173089093810880938008DD
:1005B0001F910F9108958F929F92AF92BF92CF9209
:1005C000DF92EF92FF920F931F93CF93DF934B0134
:1005D0005A01FC01EE0FFF1FEC58F74FC080D1808D
:1005E000C091C901D091CA012197C60FD71F25C05C
:1005F000F70180819181892B39F080ED91E0602FA6
:100600004C2F0E94E00106C080ED91E0602F4C2F3E
:100610000E9403020894C11CD11C0F5F1F4F82E08F
:1006200090E0E80EF91E8091C7019091C8018A0DF3
:100630009B1D08171907E4F22197C815D9054CF03E
:100640007601EE0CFF1CE4EDF1E0EE0EFF1E8501DD
:10065000EACFDF91CF911F910F91FF90EF90DF9044
:10066000CF90BF90AF909F908F900895EF92FF92A0
:100670000F931F930E94080428EE33E040E050E0FF
:100680000E94500479018A0126B183B190E0817003
:10069000907045E0880F991F4A95E1F72F71282B3C
:1006A0002093820880918308281799F08091CD01CA
:1006B0009091CE0101979093CE018093CD01892B2B
:1006C00031F486E090E09093CE018093CD012093A9
:1006D00083088091CB019091CC01AA2797FDA0952A
:1006E000BA2F8E159F05A007B107E4F4F092CC0154
:1006F000E092CB0186E090E060E070E040E050E006
:100700000E94DB0280ED91E064E670E00E949F01B0
:100710008091840890918508019790938508809333
:10072000840806C080ED91E064E670E00E949F01BD
:100730001F910F91FF90EF90089580ED91E00E943E
:1007400084011BB89FEF9AB981E085B998B98EEF03
:1007500084B917B826B183B190E08170907055E0EC
:10076000880F991F5A95E1F72F71282B2093830842
:1007700008950E9416040E949D030E943603FDCF37
:100780001F920F920FB60F9211242F933F938F93C6
:100790009F93AF93BF9380918A0890918B08A0910B
:1007A0008C08B0918D0830918E080196A11DB11D65
:1007B000232F2D5F2D3720F02D570196A11DB11D40
:1007C00020938E0880938A0890938B08A0938C08BE
:1007D000B0938D088091860890918708A091880831
:1007E000B09189080196A11DB11D80938608909350
:1007F0008708A0938808B0938908BF91AF919F9113
:100800008F913F912F910F900FBE0F901F901895D1
:100810008FB7F89420918A0830918B0840918C080A
:1008200050918D088FBFB901CA010895789484B59D
:10083000826084BD84B5816084BD85B5826085BDDC
:1008400085B5816085BDEEE6F0E0808181608083C2
:10085000E1E8F0E080818260808380818160808334
:10086000E0E8F0E0808181608083E1EBF0E080816E
:1008700084608083E0EBF0E0808181608083EAE740
:10088000F0E08081846080838081826080838081C9
:10089000816080838081806880831092C100089588
:1008A00097FB092E05260ED057FD04D014D00AD090
:1008B000001C38F450954095309521953F4F4F4F8F
:1008C0005F4F0895F6F790958095709561957F4FED
:1008D0008F4F9F4F0895A1E21A2EAA1BBB1BFD014B
:1008E0000DC0AA1FBB1FEE1FFF1FA217B307E4070F
:1008F000F50720F0A21BB30BE40BF50B661F771F67
:10090000881F991F1A9469F7609570958095909546
:100910009B01AC01BD01CF010895EE0FFF1F0590B3
:0A092000F491E02D0994F894FFCF44
:10092A007878787878787878207878787878787895
:10093A0078207878787878787878207878787878DD
:10094A0078787820787878787878787820787878CD
:10095A0078787878782078787878787878782078BD
:10096A007878787878787800787878787878787875
:10097A00787820787878787878787878782078789D
:10098A007878787878787878207878787878787835
:10099A00787878207878787878787878787820787D
:1009AA007878787878787878782078787878787815
:1009BA00787878782078787878787878787878205D
:1009CA0078787878787878787878207878787878F5
:1009DA0078787878782078787878787878787878E5
:1009EA00002000930800000A000C00010006000025
:00000001FF
