:100000000C9435000C945D000C945D000C945D0024
:100010000C945D000C945D000C945D000C945D00EC
:100020000C945D000C945D000C945D000C945D00DC
:100030000C945D000C945D000C945D000C945D00CC
:100040000C947C020C945D000C945D000C945D009B
:100050000C945D000C945D000C945D000C945D00AC
:100060000C945D000C945D00330211241FBECFEF91
:10007000D8E0DEBFCDBF11E0A0E0B1E0ECE0F6E0FB
:1000800002C005900D92A834B107D9F711E0A8E499
:10009000B1E001C01D92A138B107E1F710E0CAE656
:1000A000D0E004C02297FE010E940003C836D107A9
:1000B000C9F70E9475020C9404030C9400000F937E
:1000C0001F93CF93DF93689F8001699F100D789FE6
:1000D000100D1124C8010E947B00EC01009729F04B
:1000E00060E070E0A8010E947D01CE01DF91CF9118
:1000F0001F910F910895CF93DF93BC01823091053A
:1001000010F462E070E0A0917F01B0918001ED01F8
:10011000E0E0F0E040E050E021C08881998186175E
:10012000970769F48A819B81309719F093838283C2
:1001300004C09093800180937F01FE0134C0681752
:10014000790738F44115510519F08417950708F41B
:10015000AC01FE018A819B819C01E9012097E9F6AF
:1001600041155105A9F1CA01861B970B049708F4A4
:10017000BA01E0E0F0E02AC08D919C9111978417BC
:100180009507F9F46417750781F412968D919C9187
:100190001397309719F09383828304C09093800162
:1001A00080937F01FD0132964CC0CA01861B970BDC
:1001B000FD01E80FF91F6193719302978D939C9352
:1001C00040C0FD01828193819C01D9011097A1F665
:1001D00080917D0190917E01892B41F480911B01DA
:1001E00090911C0190937E0180937D0140911D01AF
:1001F00050911E014115510541F44DB75EB78091F4
:10020000190190911A01481B590B20917D013091E1
:100210007E01CA01821B930B8617970780F0AB0102
:100220004E5F5F4F8417950750F0420F531F509356
:100230007E0140937D01F9016193719302C0E0E07A
:10024000F0E0CF01DF91CF910895CF93DF93009736
:1002500009F450C0EC0122971B821A82A0917F0101
:10026000B0918001109709F140E050E0AC17BD0754
:1002700008F1BB83AA83FE0121913191E20FF31FA4
:10028000AE17BF0779F48D919C911197280F391FF4
:100290002E5F3F4F3983288312968D919C9113973F
:1002A0009B838A834115510571F4D0938001C093DB
:1002B0007F0120C012968D919C911397AD010097FC
:1002C00011F0DC01D3CFFA01D383C28321913191A4
:1002D000E20FF31FCE17DF0769F488819981280F99
:1002E000391F2E5F3F4FFA01318320838A819B8122
:1002F00093838283DF91CF910895DC0101C06D93D8
:1003000041505040E0F708951BB88FEF8AB984B18F
:100310008E6284B980E58CBD1EBC0DB407FEFDCF96
:100320001EBC0DB407FEFDCF1EBC0DB407FEFDCFF5
:100330001EBC0DB407FEFDCF299A29980895CF93CE
:10034000DF93EC0140E050E0B0EA34C0E881F9818D
:1003500020E0222311F4BBB909C0203110F42BB9DD
:1003600005C0822F8F508295807F8BB980E090E00E
:100370000000019682339105D9F7A08131819281E5
:1003800083818EBD0DB407FEFDCF9EBD0DB407FE6B
:10039000FDCF3EBD0DB407FEFDCF1BB8AEBD0DB405
:1003A00007FEFDCF299A29982F5F3496293189F6C7
:1003B0004F5F5F4F4617570749F6DF91CF9108957A
:1003C000FC0150E0808191812223D9F0FA01EE0FE7
:1003D000FF1FEE0FFF1FE80FF91F21E030E040E0A4
:1003E00050E004C0220F331F441F551F6A95D2F7F7
:1003F00080819181A281B381822B932BA42BB52B79
:100400001EC0FA01EE0FFF1FEE0FFF1FE80FF91FCE
:1004100021E030E040E050E004C0220F331F441FD1
:10042000551F6A95D2F7209530954095509580815B
:100430009181A281B38182239323A423B523808356
:100440009183A283B38308950F931F938C0189E155
:1004500090E064E070E00E945F00F8018083918387
:100460001F910F91089588E491E00E94240220E0FA
:1004700030E0F901E45BFE4FD901A15EBE4F8D91E2
:100480009C91918380832E5F3F4F2832310589F7FD
:10049000E0E0F1E080E090E031E00CC03196203205
:1004A00049F0DF01A80FB91F0196283711F43C93DA
:1004B00001C01C922081222389F7089588E491E0ED
:1004C0006AE070E00E949F0108950F931F9308E473
:1004D00011E0C8010E948401C80161E041E021E00F
:1004E0000E94E0011F910F9108950E94C4020E9492
:1004F00065020E945E02FDCF1F920F920FB60F920F
:1005000011242F933F938F939F93AF93BF93809129
:10051000780190917901A0917A01B0917B0130919D
:100520007C010196A11DB11D232F2D5F2D3720F0D9
:100530002D570196A11DB11D20937C018093780158
:1005400090937901A0937A01B0937B01809174011B
:1005500090917501A0917601B09177010196A11D4E
:10056000B11D8093740190937501A0937601B093AF
:100570007701BF91AF919F918F913F912F910F90F4
:100580000FBE0F901F901895789484B5826084BD3B
:1005900084B5816084BD85B5826085BD85B5816087
:1005A00085BDEEE6F0E0808181608083E1E8F0E0E7
:1005B000808182608083808181608083E0E8F0E0D8
:1005C000808181608083E1EBF0E0808184608083C2
:1005D000E0EBF0E0808181608083EAE7F0E08081F9
:1005E0008460808380818260808380818160808359
:1005F0008081806880831092C1000895EE0FFF1FF4
:0C0600000590F491E02D0994F894FFCFD0
:10060C007878787820782E2E78207878782E207844
:10061C002E2E782078787878002000810100000157
:10062C0000000000000100010000000000010001BA
:10063C0000010001000100010000000000010001A8
:08064C000001000100010000A3
:00000001FF
