:100000000C9471000C9499000C9499000C94990034
:100010000C9499000C9499000C9499000C949900FC
:100020000C9499000C9499000C9499000C949900EC
:100030000C9499000C9499000C9499000C949900DC
:100040000C946B050C9499000C9499000C949900F5
:100050000C9499000C9499000C9499000C949900BC
:100060000C9499000C94990005A84CCDB2D44EB9CB
:100070003836A9020C50B9918688083CA6AAAA2A4B
:10008000BE000000803F00000000240027002A007E
:1000900000000000250028002B00000000002300C5
:1000A00026002900040404040404040402020202D9
:1000B000020203030303030301020408102040802B
:1000C00001020408102001020408102000000007AB
:1000D0000002010000030406000000000000000010
:1000E000400311241FBECFEFD8E0DEBFCDBF12E02A
:1000F000A0E0B1E0ECE4F2E102C005900D92AC3F6B
:10010000B107D9F715E0ACEFB2E001C01D92A334FE
:10011000B107E1F710E0C2EED0E004C02297FE0183
:100120000E942009C03ED107C9F70E9464050C94C3
:1001300024090C9400000F931F93CF93DF93689FC3
:100140008001699F100D789F100D1124C8010E9435
:10015000B700EC01009729F060E070E0A8010E9470
:10016000B901CE01DF91CF911F910F910895CF93E7
:10017000DF93BC018230910510F462E070E0A09141
:100180004105B0914205ED01E0E0F0E040E050E0D3
:1001900021C0888199818617970769F48A819B819C
:1001A000309719F09383828304C090934205809323
:1001B0004105FE0134C06817790738F4411551052F
:1001C00019F08417950708F4AC01FE018A819B8120
:1001D0009C01E9012097E9F641155105A9F1CA01F1
:1001E000861B970B049708F4BA01E0E0F0E02AC000
:1001F0008D919C91119784179507F9F464177507F1
:1002000081F412968D919C911397309719F09383F6
:10021000828304C09093420580934105FD0132968C
:100220004CC0CA01861B970BFD01E80FF91F6193B3
:10023000719302978D939C9340C0FD0182819381BD
:100240009C01D9011097A1F680913F05909140053E
:10025000892B41F48091EC029091ED02909340053E
:1002600080933F054091EE025091EF0241155105F8
:1002700041F44DB75EB78091EA029091EB02481BC2
:10028000590B20913F0530914005CA01821B930B09
:100290008617970780F0AB014E5F5F4F8417950775
:1002A00050F0420F531F5093400540933F05F90112
:1002B0006193719302C0E0E0F0E0CF01DF91CF9154
:1002C0000895CF93DF93009709F450C0EC01229773
:1002D0001B821A82A0914105B0914205109709F145
:1002E00040E050E0AC17BD0708F1BB83AA83FE01D4
:1002F00021913191E20FF31FAE17BF0779F48D9171
:100300009C911197280F391F2E5F3F4F3983288307
:1003100012968D919C9113979B838A834115510569
:1003200071F4D0934205C093410520C012968D917F
:100330009C911397AD01009711F0DC01D3CFFA0126
:10034000D383C28321913191E20FF31FCE17DF07D0
:1003500069F488819981280F391F2E5F3F4FFA0178
:10036000318320838A819B8193838283DF91CF9124
:100370000895DC0101C06D9341505040E0F70895AD
:100380001BB88FEF8AB984B18E6284B980E58CBDC9
:100390001EBC0DB407FEFDCF1EBC0DB407FEFDCF85
:1003A0001EBC0DB407FEFDCF1EBC0DB407FEFDCF75
:1003B000299A29980895CF93DF93EC0140E050E00B
:1003C000B0EA34C0E881F98120E0222311F4BBB9FE
:1003D00009C0203110F42BB905C0822F8F508295AF
:1003E000807F8BB980E090E0000001968233910518
:1003F000D9F7A0813181928183818EBD0DB407FE32
:10040000FDCF9EBD0DB407FEFDCF3EBD0DB407FE72
:10041000FDCF1BB8AEBD0DB407FEFDCF299A2998BC
:100420002F5F3496293189F64F5F5F4F4617570784
:1004300049F6DF91CF9108959F92AF92BF92CF92EC
:10044000DF92EF92FF920F931F93CF93DF93EC0114
:1004500069311CF029310CF0BBC049311CF0093165
:100460000CF0B6C0E22FFF27E7FDF095862F992705
:1004700087FD9095E81BF90BF7FF03C0F095E19518
:10048000FF4FAE2EE02FFF27E7FDF095842F992731
:1004900087FD9095E81BF90BF7FF03C0F095E195F8
:1004A000FF4FBE2EEA150CF04BC062171CF0802FD8
:1004B000042F02C0262F842F80171CF099249A94B1
:1004C00002C099249394082F622F10E070E0E1E0BD
:1004D000CE2ED12CE12CF12C30C07B0DA71614F4BC
:1004E0007A19090D093120F567FD22C0693104F53B
:1004F000802F90E0880F991F880F991FE881F9815C
:10050000E80FF91FA7019601062E04C0220F331F22
:10051000441F551F0A94D2F780819181A281B38133
:10052000822B932BA42BB52B80839183A283B3833F
:100530006F5F69310CF04CC01F5FA11674F648C0A4
:1005400040171CF0322F262F02C0362F042F3217EF
:100550001CF099249A9402C099249394732F10E06C
:1005600060E041E0C42ED12CE12CF12C2FC06A0DAB
:10057000B61614F46B19790D093120F577FD22C0F8
:10058000793104F5802F90E0880F991F880F991F0B
:10059000E881F981E80FF91FA7019601072E04C031
:1005A000220F331F441F551F0A94D2F78081918177
:1005B000A281B381822B932BA42BB52B80839183B3
:1005C000A283B3830F5F09311CF41F5FB1167CF661
:1005D000DF91CF911F910F91FF90EF90DF90CF901F
:1005E000BF90AF909F900895FC01A081B18184E6F7
:1005F000FD0111928A95E9F708950F931F938C01DD
:1006000089E190E064E070E00E949B00F801808343
:1006100091831F910F910895FC01DB014091FC042F
:100620005091FD04518340832091F6023091F702EE
:100630008091F4029091F502BC01269FC001279F92
:10064000900D369F900D1124840F951F9093FD04FB
:100650008093FC0491E010C08E3239F0883759F451
:10066000FA01E85FFC4F908304C0FA01E85FFC4F99
:1006700010824F5F5F4F11968C91882369F7089520
:100680008CEF92E00E94FD0284E093E00E94FD0264
:100690004091FC045091FD045093FF044093FE04EC
:1006A0002091F6023091F7028091F4029091F502C8
:1006B000BC01269FC001279F900D369F900D1124ED
:1006C000840F951F9093FD048093FC0480E095E0D7
:1006D00060E071E00E940C0382E095E061E371E06C
:1006E0000E940C0384E095E062E671E00E940C0336
:1006F00086E095E063E971E00E940C0388E095E0F4
:1007000064EC71E00E940C038AE095E065EF71E013
:100710000E940C038CE095E066E272E00E940C03FC
:100720008EE095E067E572E00E940C0380E195E0C1
:1007300068E872E00E940C0382E195E069EB72E0E8
:100740000E940C038091000590910105909315057E
:1007500080931405809102059091030590931705ED
:1007600080931605809104059091050590931905D5
:1007700080931805809106059091070590931B05BD
:1007800080931A05809108059091090590931D05A5
:1007900080931C0580910A0590910B0590931F058D
:1007A00080931E0580910C0590910D059093210575
:1007B0008093200580910E0590910F05909323055D
:1007C0008093220580911005909111059093250545
:1007D000809324058091120590911305909327052D
:1007E0008093260588E090E090932B0580932A055E
:1007F00081E090E090932D0580932C0510922E05BA
:1008000010922F051092300510923105109232058A
:1008100010923305109234051092350588E060E09F
:100820000E94FB0588E061E00E941B060895AF92DC
:10083000BF92CF92DF92EF92FF920F931F93CF93CD
:10084000DF930E94B30528EE33E040E050E00E94C1
:10085000CD0879018A0180912A050E946806EC0181
:10086000009711F4AA240AC0AA2480912C05909123
:100870002D05C817D90711F0AA24A39420912C059F
:1008800030912D0580912E0590912F05A091300576
:10089000B0913105181619061A061B065CF40E9461
:1008A000B30560932E0570932F05809330059093C8
:1008B000310516C0232BA1F4209791F40E94B305B3
:1008C000EEE2F5E034966093320571838283938380
:1008D00060932E0570932F0580933005909331051A
:1008E000D0932D05C0932C0580912E0590912F0556
:1008F000A0913005B091310520913205309133053A
:100900004091340550913505AA2019F480E090E01B
:100910001AC010922E0510922F05109230051092D9
:100920003105109232051092330510923405109261
:100930003505821B930B895E93401CF481E090E0A7
:1009400002C082E090E08130910579F00297A9F42D
:100950008091FA029091FB0262E070E00E94BA0876
:10096000709329056093280508C08091FA02909140
:10097000FB0290932905809328058091F8029091BD
:10098000F902AA2797FDA095BA2F8E159F05A007FB
:10099000B107C4F5F092F902E092F8026091000309
:1009A0007091010380910203909103032091F00262
:1009B0003091F1024091F2025091F3020E94B80688
:1009C0007B018C0160930003709301038093020309
:1009D000909303032BED3FE049EC50E40E94E307C2
:1009E000882384F0C801B7012BED3FE049EC50E4C7
:1009F0000E94B70660930003709301038093020383
:100A0000909303038CEF92E00E94F402E0900003C5
:100A1000F09001030091020310910303C801B70194
:100A20000E941C075B016C01C801B7010E944A08C3
:100A30007B018C01C601B50120E030E040EA51E4C1
:100A40000E94E70720E030E040E451E40E94B8064D
:100A50000E941F075B016C01C801B70120E030E074
:100A600040EA51E40E94E70720E030E040E451E42E
:100A70000E94B8060E941F077B018C018CEF92E058
:100A80006CE04CE02A2D0E2D0E941C028CEF92E0AF
:100A900068E770E00E94DB01DF91CF911F910F9119
:100AA000FF90EF90DF90CF90BF90AF90089584E0DB
:100AB00093E00E94C0018091FA029091FB02909312
:100AC00029058093280508950E94C1050E945705B5
:100AD0000E941704FDCF1F920F920FB60F921124A0
:100AE0002F933F938F939F93AF93BF9380913A053A
:100AF00090913B05A0913C05B0913D0530913E059C
:100B00000196A11DB11D232F2D5F2D3720F02D57EC
:100B10000196A11DB11D20933E0580933A05909347
:100B20003B05A0933C05B0933D058091360590911F
:100B30003705A0913805B09139050196A11DB11D69
:100B40008093360590933705A0933805B093390507
:100B5000BF91AF919F918F913F912F910F900FBEB9
:100B60000F901F9018958FB7F89420913A05309107
:100B70003B0540913C0550913D058FBFB901CA012D
:100B80000895789484B5826084BD84B5816084BD05
:100B900085B5826085BD85B5816085BDEEE6F0E0F6
:100BA000808181608083E1E8F0E0808182608083E1
:100BB000808181608083E0E8F0E0808181608083D3
:100BC000E1EBF0E0808184608083E0EBF0E0808105
:100BD00081608083EAE7F0E08081846080838081A7
:100BE000826080838081816080838081806880834F
:100BF0001092C1000895282F30E0C90188549F4FFA
:100C0000FC0194912C553F4FF9018491882391F078
:100C1000E82FF0E0EE0FFF1FEA57FF4FA591B491C8
:100C2000662329F48C91909589238C9308958C9157
:100C3000892B8C930895482F50E0CA0184539F4F0D
:100C4000FC012491CA0188549F4FFC0194914C559A
:100C50005F4FFA0134913323D1F1222331F1233054
:100C600021F4809180008F7705C0243031F4809189
:100C700080008F7D8093800018C0213019F484B5E6
:100C80008F7704C0223021F484B58F7D84BD0DC0E0
:100C9000263021F48091B0008F7705C0273029F4E9
:100CA0008091B0008F7D8093B000E32FF0E0EE0FD5
:100CB000FF1FE057FF4FA591B491662329F48C9153
:100CC000909589238C9308958C91892B8C9308950A
:100CD000682F70E0CB0184539F4FFC012491CB011E
:100CE00088549F4FFC0144916C557F4FFB019491B8
:100CF000992319F420E030E038C0222331F1233069
:100D000021F4809180008F7705C0243031F48091E8
:100D100080008F7D8093800018C0213019F484B545
:100D20008F7704C0223021F484B58F7D84BD0DC03F
:100D3000263021F48091B0008F7705C0273029F448
:100D40008091B0008F7D8093B000892F90E0880F54
:100D5000991F86569F4FFC01A591B4918C9120E07C
:100D600030E0842311F021E030E0C90108955058AB
:100D7000BB27AA270ED0DCC09CD030F0A1D020F039
:100D800031F49F3F11F41EF491C00EF4E095E7FB9F
:100D900087C0E92FEFD080F3BA1762077307840783
:100DA000950718F071F49EF507C10EF4E0950B2E2F
:100DB000BA2FA02D0B01B90190010C01CA01A001AD
:100DC0001124FF27591B99F0593F50F4503E68F108
:100DD0001A16F040A22F232F342F4427585FF3CF49
:100DE000469537952795A795F0405395C9F77EF41A
:100DF0001F16BA0B620B730B840BBAF09150A1F063
:100E0000FF0FBB1F661F771F881FC2F70EC0BA0FE8
:100E1000621F731F841F48F4879577956795B79570
:100E2000F7959E3F08F0B3CF9395880F08F0992768
:100E3000EE0F9795879508954BD0E3958AC004D01F
:100E40006894B111BAC008959DD088F09F5790F072
:100E5000B92F9927B751A0F0D1F0660F771F881FDF
:100E6000991F1AF0BA95C9F712C0B13081F0A4D019
:100E7000B1E00895A1C0672F782F8827B85F39F0B7
:100E8000B93FCCF3869577956795B395D9F73EF43E
:100E900090958095709561957F4F8F4F9F4F0895E6
:100EA00097F99F6780E870E060E008959FEF80EC1D
:100EB000089500240A9416161706180609060895C0
:100EC00000240A9412161306140605060895EECFA0
:100ED00059D0E8F3E894EFEFBB273FE048EC5FE739
:100EE0006B3D73078407950708F1FF279F57B25A98
:100EF0006A4D7F40894CF04032F4BE556542704FD8
:100F00008643FF4F0894EE1F915030F0BB0F661FD1
:100F1000771F881FFF1FEBCF9EE7882332F0BB0FA0
:100F2000661F771F881F9A95C1F79395E095DCC0DF
:100F3000092E0394000C11F4882352F0BB0F40F4E7
:100F4000BF2B11F460FF04C06F5F7F4F8F4F9F4F27
:100F50000895EF93E0FF06C0A2EA2AED3FE049ECD6
:100F60005FEB17DFE5DF0F90039401FC9058E8E694
:100F7000F0E0CAC057FD9058440F551F59F05F3F2D
:100F800071F04795880F97FB991F61F09F3F79F0AB
:100F900087950895121613061406551FF2CF46952D
:100FA000F1DF08C0161617061806991FF1CF8695AF
:100FB0007105610508940895E894BB276627772793
:100FC000CB0197F908956CD008F48FEF08950BD0FA
:100FD000AFCF6FDF28F074DF18F0952309F060CFF2
:100FE00065CF1124EACFC6DFA0F3959FD1F3950F0B
:100FF00050E0551F629FF001729FBB27F00DB11D9D
:10100000639FAA27F00DB11DAA1F649F6627B00D2C
:10101000A11D661F829F2227B00DA11D621F739F15
:10102000B00DA11D621F839FA00D611D221F749F23
:101030003327A00D611D231F849F600D211D822F6A
:10104000762F6A2F11249F5750408AF0E1F08823B1
:101050004AF0EE0FFF1FBB1F661F771F881F9150BE
:101060005040A9F79E3F510570F01ACFA6CF5F3FC1
:10107000ECF3983EDCF3869577956795B795F795F1
:10108000E7959F5FC1F7FE2B880F911D9695879579
:1010900097F908959F931CDF0F9007FCEE5F59CFDF
:1010A000990F0008550FAA0BE0E8FEEF1616170679
:1010B000E807F907C0F012161306E407F50798F0E1
:1010C000621B730B840B950B39F40A2661F0232BFA
:1010D000242B252B21F408950A2609F4A140A69576
:1010E0008FEF811D811D08959F3F49F0915028F495
:1010F000869577956795B7959F5F80389F4F880F46
:101100009695879597F908959F938F937F936F9303
:10111000FF93EF939B01AC015ADFEF91FF9105D054
:101120002F913F914F915F9152CFDF93CF931F93B8
:101130000F93FF92EF92DF927B018C01689405C0C0
:10114000DA2EEF0150DFFE01E894A591259135914B
:1011500045915591AEF3EF011CDEFE019701A80108
:10116000DA9479F7DF90EF90FF900F911F91CF9174
:10117000DF91089597FB092E07260AD077FD04D04A
:1011800027D006D000201AF4709561957F4F0895FE
:10119000F6F7909581959F4F089597FB092E0526A8
:1011A0000ED057FD04D028D00AD0001C38F450953A
:1011B0004095309521953F4F4F4F5F4F0895F6F77B
:1011C00090958095709561957F4F8F4F9F4F0895B3
:1011D000AA1BBB1B51E107C0AA1FBB1FA617B7075D
:1011E00010F0A61BB70B881F991F5A95A9F7809579
:1011F0009095BC01CD010895A1E21A2EAA1BBB1B3C
:10120000FD010DC0AA1FBB1FEE1FFF1FA217B307D2
:10121000E407F50720F0A21BB30BE40BF50B661FE8
:10122000771F881F991F1A9469F7609570958095AC
:1012300090959B01AC01BD01CF010895EE0FFF1FFA
:0C1240000590F491E02D0994F894FFCF84
:10124C002E787878782E2078782E2E7878207878EA
:10125C002E2E78782078782E2E78782078782E2E6E
:10126C0078782078782E2E7878202E787878782ECA
:10127C00002E2E2E78782E202E2E2E78782E202EA4
:10128C002E2E78782E202E2E2E78782E202E2E2E66
:10129C0078782E202E2E7878782E202E2E2E787878
:1012AC002E007878787878782078782E2E2E2E204C
:1012BC002E78782E2E2E202E2E7878782E202E2EEC
:1012CC002E2E78782078782E2E7878202E787878B4
:1012DC00782E002E787878782E2078782E2E7878C4
:1012EC00202E2E2E2E7878202E2E7878782E202ECA
:1012FC002E2E2E78782078782E2E7878202E7878CE
:10130C0078782E002E2E2E78782E202E2E2E787871
:10131C002E2078787878787820782E2E78782E2071
:10132C002E782E78782E202E2E7878782E202E2E31
:10133C002E78782E002E787878782E202E2E2E2E41
:10134C007878202E2E2E2E7878202E787878782E7D
:10135C00202E78782E2E2E202E78782E2E2E202EA3
:10136C007878787878002E787878782E2078782E9F
:10137C002E78782078782E2E78782078787878786F
:10138C002E2078782E2E2E2E202E78782E2E2E2073
:10139C002E2E7878782E002E2E78782E2E202E2E2B
:1013AC0078782E2E202E2E78782E2E202E2E2E78FB
:1013BC00782E202E2E2E78782E202E2E2E2E7878EB
:1013CC0020787878787878002E787878782E20784D
:1013DC00782E2E78782078782E2E7878202E7878A3
:1013EC0078782E2078782E2E78782078782E2E7893
:1013FC0078202E787878782E002E7878782E2E20FB
:10140C002E2E2E78782E202E2E2E2E7878202E789A
:10141C00787878782078782E2E78782078782E2E18
:10142C007878202E787878782E00200043050000FC
:0C143C005077D63D060007000100580262
:00000001FF
