:100000000C9434000C9451000C9451000C94510049
:100010000C9451000C9451000C9451000C9451001C
:100020000C9451000C9451000C9451000C9451000C
:100030000C9451000C9451000C9451000C945100FC
:100040000C94B4050C9451000C9451000C94510084
:100050000C9451000C9451000C9451000C945100DC
:100060000C9451000C94510011241FBECFEFD8E026
:10007000DEBFCDBF11E0A0E0B1E0E6E9FDE002C0E7
:1000800005900D92A830B107D9F712E0A8E0B1E0D1
:1000900001C01D92A334B107E1F70E94AD050C9495
:1000A000C9060C940000A0E0B0E0E9E5F0E00C9493
:1000B0007806EC01A880B980CA80DB80A114B10465
:1000C000C104D10441F484E2A82E89EDB82E8BE559
:1000D000C82E87E0D82EC601B5012DE133EF41E0EF
:1000E00050E00E94550627EA31E440E050E00E94CB
:1000F00036067B018C01C601B5012DE133EF41E0ED
:1001000050E00E945506CA01B9012CEE34EF4FEFC2
:100110005FEF0E9436066E0D7F1D801F911F97FFB7
:1001200004C06150704080409048688379838A831E
:100130009B839B013F77C901CDB7DEB7EAE00C9402
:1001400094060E945300089580E091E00E945300BD
:100150000895A0E0B0E08093000190930101A09386
:100160000201B09303010895DF92EF92FF920F9383
:100170001F937B018C01FB010995D82EC8010196C4
:10018000F7010995982F8D2D1F910F91FF90EF90FA
:10019000DF900895DF92EF92FF920F931F93D72E77
:1001A0007A018C01FA010995C80101966D2DF701BC
:1001B00009951F910F91FF90EF90DF9008959C019A
:1001C000F999FECF32BD21BDF89A80B508959C0102
:1001D000F999FECF1FBA32BD21BD60BD0FB6F894AC
:1001E000FA9AF99A0FBE08950F931F93CF93DF9356
:1001F000EC01142F062F362F3150415037FF02C02B
:10020000E8E105C0393114F0E0E001C0E32F47FF19
:1002100002C028E105C0493114F020E001C0242FBC
:10022000FF27E7FDF095EE0FFF1FEE0FFF1FEC0F0E
:10023000FD1F80819181A281B38104C0B695A795ED
:10024000979587952A95D2F7582F517037FF02C09E
:10025000E8E105C0393114F0E0E001C0E32F17FFF9
:1002600002C028E105C0193114F020E001C0212F9F
:10027000FF27E7FDF095EE0FFF1FEE0FFF1FEC0FBE
:10028000FD1F80819181A281B38104C0B695A7959D
:10029000979587952A95D2F780FD5F5F712F7F5FD5
:1002A00037FF02C038E103C039310CF030E077FF8E
:1002B00002C028E105C0793114F020E001C0272FE9
:1002C000E32FFF27E7FDF095EE0FFF1FEE0FFF1F57
:1002D000EC0FFD1F80819181A281B38104C0B6958E
:1002E000A795979587952A95D2F780FD5F5F67FF61
:1002F00002C0E8E105C0693114F0E0E001C0E62F7A
:1003000047FF02C028E105C0493114F020E001C0D8
:10031000242FFF27E7FDF095EE0FFF1FEE0FFF1FC5
:10032000EC0FFD1F80819181A281B38104C0B6953D
:10033000A795979587952A95D2F780FD5F5F67FF10
:1003400002C068E103C069310CF060E077FF02C0D1
:1003500028E105C0793114F020E001C0272FE62FF5
:10036000FF27E7FDF095EE0FFF1FEE0FFF1FEC0FCD
:10037000FD1F80819181A281B38104C0B695A795AC
:10038000979587952A95D2F780FD5F5F202F2F5F85
:1003900027FF02C0E8E105C0293114F0E0E001C008
:1003A000E22F47FF02C048E103C049310CF040E0B2
:1003B000FF27E7FDF095EE0FFF1FEE0FFF1FEC0F7D
:1003C000FD1F80819181A281B38104C0B695A7955C
:1003D000979587954A95D2F780FD5F5F27FF02C00A
:1003E000E8E105C0293114F0E0E001C0E22F17FF79
:1003F00002C018E103C019310CF010E0FF27E7FD3F
:10040000F095EE0FFF1FEE0FFF1FEC0FFD1F808119
:100410009181A281B38104C0B695A79597958795E0
:100420001A95D2F780FD5F5F27FF02C028E103C065
:1004300029310CF020E077FF02C078E103C0793168
:100440000CF070E0E22FFF27E7FDF095EE0FFF1FA5
:10045000EE0FFF1FEC0FFD1F80819181A281B38100
:1004600004C0B695A795979587957A95D2F780FDA4
:100470005F5F852FDF91CF911F910F9108957F923C
:100480008F929F92AF92BF92CF92DF92EF92FF92A4
:100490000F931F93CF93DF938090040190900501F9
:1004A000C0E0D0E010EA712E40C060E070E061155D
:1004B000710511F47BB80AC06031710510F46BB995
:1004C00005C0862F8F508295807F8BB9FB01EE0F80
:1004D000FF1FEE0FFF1FE053FE4F2081318142814D
:1004E0005381A32EB42EC52EDD247A0100271127B7
:1004F000852F9927AA27BB278EBD0DB407FEFDCFF8
:10050000EEBC0DB407FEFDCFAEBC0DB407FEFDCFB3
:100510001BB82EBD0DB407FEFDCF299A29986F5F39
:100520007F4F6931710519F62196C815D90508F470
:10053000BCCFDF91CF911F910F91FF90EF90DF9093
:10054000CF90BF90AF909F908F907F900895DF9253
:10055000EF92FF920F931F93CF93DF93EC01DD2473
:100560000E94A4007C010027F7FC0095102F8FE06B
:10057000EE0CFF1C001F111F8A95D1F7E882F9824B
:100580000A831B830E94A400AA2797FDA095BA2F77
:10059000E82AF92A0A2B1B2BE992F992099319935D
:1005A000D39489E1D816E1F6DF91CF911F910F9195
:1005B000FF90EF90DF9008958F929F92AF92BF923D
:1005C000CF92DF92EF92FF920F931F93CF93DF931F
:1005D00016B183B190E08170907065E0880F991F2B
:1005E0006A95E1F71F71182B109334028091350240
:1005F000812709F4E0C0812380933502082F80FF12
:1006000074C080913602882309F46FC030910701CD
:100610004091060137FF02C0E8E105C0393114F00E
:10062000E0E001C0E32F47FF02C028E105C04931E7
:1006300014F020E001C0242FFF27E7FDF095EE0F16
:10064000FF1FEE0FFF1FE459FE4F80819181A281B1
:10065000B38104C0B695A795979587952A95D2F74B
:10066000E32FFF27E7FDF095642F772767FD70954F
:1006700080FD1AC0EE0FFF1FEE0FFF1FE85FFE4F59
:1006800021E030E040E050E004C0220F331F441F5F
:10069000551F6A95D2F780819181A281B381822B07
:1006A000932BA42BB52B1DC0EE0FFF1FEE0FFF1FCA
:1006B000E85FFE4F21E030E040E050E004C0220F50
:1006C000331F441F551F6A95D2F7209530954095EA
:1006D000509580819181A281B38182239323A423A9
:1006E000B52380839183A283B38301FF0EC08091E1
:1006F0003602882351F080910601815080930601D3
:1007000087FF03C088E18093060102FF1AC0809131
:100710003602882351F0809107018F5F8093070193
:1007200089317CF0109207010CC0809104019091F6
:1007300005018931910528F4019690930501809374
:10074000040103FF1BC080913602882359F0809179
:10075000070181508093070187FF10C088E18093D3
:1007600007010CC080910401909105018230910530
:1007700028F00197909305018093040104FF0DC0B8
:1007800080913602882349F0809106018F5F809323
:100790000601893114F01092060105FF0CC090E0AB
:1007A00080913602882309F491E0909336029923D0
:1007B00011F0109237021093350210FD08C080919D
:1007C0003602882321F48CE691E00E94A7020CE611
:1007D00011E0C0E0D0E0B1E08B2E912CA12CB12C27
:1007E00030C0D701C601062E04C0B695A7959795CF
:1007F00087950A94D2F780FF0EC0D501C401062E5A
:1008000004C0880F991FAA1FBB1F0A94D2F7282B78
:10081000392B4A2B5B2B6F5F7F4F6931710509F7CD
:10082000FE01EE0FFF1FEE0FFF1FE053FE4F208370
:1008300031834283538321960C5F1F4FC931D10509
:1008400061F0F801C080D180E280F38020E030E0E8
:1008500040E050E060E070E0C4CF0E943F02809131
:100860003602882349F4C8E0D1E0BB24E1E0CE2E73
:10087000D12CE12CF12CC3C021E030E040E050E06D
:100880000090060104C0220F331F441F551F0A9415
:10089000D2F7A32EB42EC52EDD247A01002711270E
:1008A000852F9927AA27BB278EBD0DB407FEFDCF44
:1008B000EEBC0DB407FEFDCFAEBC0DB407FEFDCF00
:1008C0002EBD0DB407FEFDCF299A2998809107010E
:1008D0008F3014F48F5F03C08E508295807F8BB968
:1008E000809138029091390220E030E000002F5FC3
:1008F0003F4F82179307D0F71BB81EBC0DB407FEFD
:10090000FDCF1EBC0DB407FEFDCF1EBC0DB407FE0F
:10091000FDCF1EBC0DB407FEFDCF299A2998C296C3
:100920009093390280933802855F914020F01092B5
:100930003902109238020E943F02A3C08CE691E077
:100940006B2D402F0E94F400682F8230D0F4A70155
:100950009601002E04C0220F331F441F551F0A9416
:10096000D2F7209530954095509588819981AA813C
:10097000BB8182239323A423B52388839983AA83ED
:10098000BB83633099F4A7019601002E04C0220FA7
:10099000331F441F551F0A94D2F788819981AA8179
:1009A000BB81822B932BA42BB52B18C06430D0F0C5
:1009B000A7019601002E04C0220F331F441F551FAC
:1009C0000A94D2F720953095409550958881998169
:1009D000AA81BB8182239323A423B523888399838F
:1009E000AA83BB830F5F1F4F0931110509F0A6CF02
:1009F0000E943F02B394249629E1B21619F000E058
:100A000010E09CCF0E943F02809137028F5F80935D
:100A100037028150883CA9F50E94A400AA2797FDBF
:100A2000A095BA2F9070A070B0708093340190930D
:100A30003501A0933601B09337010E94A400AA2784
:100A400097FDA095BA2F9070A070B0708093380178
:100A500090933901A0933A01B0933B010E94A40006
:100A6000AA2797FDA095BA2F9070A070B0708093C0
:100A70003C0190933D01A0933E01B0933F01109241
:100A8000370240E050E09A0124593E4FFA01E85FF6
:100A9000FE4F80819181A281B381F901808391838E
:100AA000A283B3834C5F5F4F4436510561F70E94C8
:100AB0003F02DF91CF911F910F91FF90EF90DF9058
:100AC000CF90BF90AF909F908F9008951F9382E03A
:100AD00090E06FED70E00E94B4000E94A90010E069
:100AE0000E94A40086BD1F5F1F3FD1F70E94A40093
:100AF000BC0182E090E047EE50E00E94CA001BB8C3
:100B00001AB981E085B918B98EEF84B917B88EE2A9
:100B100084B980E58CBD1EBC0DB407FEFDCF1EBCA4
:100B20000DB407FEFDCF1EBC0DB407FEFDCF299A04
:100B300029988CE691E00E94A70226B183B190E04B
:100B40008170907075E0880F991F7A95E1F72F7189
:100B5000282B209335021F9108950E94FC050E94C6
:100B600066050E94DC02FDCF1F920F920FB60F9216
:100B700011242F933F938F939F93AF93BF938091B3
:100B80003E0290913F02A0914002B091410230910B
:100B900042020196A11DB11D232F2D5F2D3720F09C
:100BA0002D570196A11DB11D2093420280933E0254
:100BB00090933F02A0934002B093410280913A0289
:100BC00090913B02A0913C02B0913D020196A11D83
:100BD000B11D80933A0290933B02A0933C02B093E4
:100BE0003D02BF91AF919F918F913F912F910F90B7
:100BF0000FBE0F901F901895789484B5826084BDC5
:100C000084B5816084BD85B5826085BD85B5816010
:100C100085BDEEE6F0E0808181608083E1E8F0E070
:100C2000808182608083808181608083E0E8F0E061
:100C3000808181608083E1EBF0E08081846080834B
:100C4000E0EBF0E0808181608083EAE7F0E0808182
:100C500084608083808182608083808181608083E2
:100C60008081806880831092C1000895629FD001C6
:100C7000739FF001829FE00DF11D649FE00DF11D57
:100C8000929FF00D839FF00D749FF00D659FF00D06
:100C90009927729FB00DE11DF91F639FB00DE11DF3
:100CA000F91FBD01CF011124089597FB092E0526D8
:100CB0000ED057FD04D04BD00AD0001C38F450950C
:100CC0004095309521953F4F4F4F5F4F0895F6F770
:100CD00090958095709561957F4F8F4F9F4F0895A8
:100CE0002F923F924F925F926F927F928F929F923C
:100CF000AF92BF92CF92DF92EF92FF920F931F932A
:100D0000CF93DF93CDB7DEB7CA1BDB0B0FB6F894DA
:100D1000DEBF0FBECDBF09942A88398848885F841A
:100D20006E847D848C849B84AA84B984C884DF808B
:100D3000EE80FD800C811B81AA81B981CE0FD11D6F
:100D40000FB6F894DEBF0FBECDBFED010895A1E24E
:100D50001A2EAA1BBB1BFD010DC0AA1FBB1FEE1F35
:100D6000FF1FA217B307E407F50720F0A21BB30B80
:100D7000E40BF50B661F771F881F991F1A9469F7FC
:100D800060957095809590959B01AC01BD01CF0158
:060D90000895F894FFCF66
:080D96000100000008000C0C34
:00000001FF
