:100000000C9435000C945D000C945D000C945D0024
:100010000C945D000C945D000C945D000C945D00EC
:100020000C945D000C945D000C945D000C945D00DC
:100030000C945D000C945D000C945D000C945D00CC
:100040000C94AA050C945D000C945D000C945D006A
:100050000C945D000C945D000C945D000C945D00AC
:100060000C945D000C945D00420211241FBECFEF82
:10007000D8E0DEBFCDBF12E0A0E0B1E0ECE4FDE0EF
:1000800002C005900D92A633B107D9F716E0A6E39A
:10009000B2E001C01D92A331B107E1F710E0CAE65A
:1000A000D0E004C02297FE010E94A006C836D10706
:1000B000C9F70E94A3050C94A4060C9400000F93AA
:1000C0001F93CF93DF93689F8001699F100D789FE6
:1000D000100D1124C8010E947B00EC01009729F04B
:1000E00060E070E0A8010E947D01CE01DF91CF9118
:1000F0001F910F910895CF93DF93BC01823091053A
:1001000010F462E070E0A0911106B0911206ED01CA
:10011000E0E0F0E040E050E021C08881998186175E
:10012000970769F48A819B81309719F093838283C2
:1001300004C09093120680931106FE0134C0681724
:10014000790738F44115510519F08417950708F41B
:10015000AC01FE018A819B819C01E9012097E9F6AF
:1001600041155105A9F1CA01861B970B049708F4A4
:10017000BA01E0E0F0E02AC08D919C9111978417BC
:100180009507F9F46417750781F412968D919C9187
:100190001397309719F09383828304C090931206CB
:1001A00080931106FD0132964CC0CA01861B970B45
:1001B000FD01E80FF91F6193719302978D939C9352
:1001C00040C0FD01828193819C01D9011097A1F665
:1001D00080910F0690911006892B41F480912E0298
:1001E00090912F029093100680930F064091300259
:1001F000509131024115510541F44DB75EB78091E0
:100200002C0290912D02481B590B20910F06309122
:100210001006CA01821B930B8617970780F0AB016B
:100220004E5F5F4F8417950750F0420F531F509356
:10023000100640930F06F9016193719302C0E0E04C
:10024000F0E0CF01DF91CF910895CF93DF93009736
:1002500009F450C0EC0122971B821A82A09111066A
:10026000B0911206109709F140E050E0AC17BD07BD
:1002700008F1BB83AA83FE0121913191E20FF31FA4
:10028000AE17BF0779F48D919C911197280F391FF4
:100290002E5F3F4F3983288312968D919C9113973F
:1002A0009B838A834115510571F4D0931206C09344
:1002B000110620C012968D919C911397AD01009765
:1002C00011F0DC01D3CFFA01D383C28321913191A4
:1002D000E20FF31FCE17DF0769F488819981280F99
:1002E000391F2E5F3F4FFA01318320838A819B8122
:1002F00093838283DF91CF910895DC0101C06D93D8
:1003000041505040E0F708951BB88FEF8AB984B18F
:100310008E6284B980E58CBD1EBC0DB407FEFDCF96
:100320001EBC0DB407FEFDCF1EBC0DB407FEFDCFF5
:100330001EBC0DB407FEFDCF299A29980895CF93CE
:10034000DF93EC0140E050E0B0EA34C0E881F9818D
:1003500020E0222311F4BBB909C0203110F42BB9DD
:1003600005C0822F8F508295807F8BB980E090E00E
:100370000000019682339105D9F7A08131819281E5
:1003800083818EBD0DB407FEFDCF9EBD0DB407FE6B
:10039000FDCF3EBD0DB407FEFDCF1BB8AEBD0DB405
:1003A00007FEFDCF299A29982F5F3496293189F6C7
:1003B0004F5F5F4F4617570749F6DF91CF9108957A
:1003C000FC0150E0440F551F440F551F0190F08170
:1003D000E02DE40FF51F21E030E040E050E004C0E4
:1003E000220F331F441F551F6A95D2F780819181D8
:1003F000A281B381822B932BA42BB52B8083918375
:10040000A283B3830895FC0150E0440F551F440FAD
:10041000551F0190F081E02DE40FF51F21E030E041
:1004200040E050E004C0220F331F441F551F6A955F
:10043000D2F7209530954095509580819181A28189
:10044000B38182239323A423B52380839183A28342
:10045000B3830895FC01A081B18184E6FD0111926E
:100460008A95E9F708950F931F938C0189E190E035
:1004700064E070E00E945F00F801808391831F9127
:100480000F910895A0E0B1E020E030E041E050E0BD
:1004900016C08E3251F0883789F4F901EE0FFF1F34
:1004A000EA5CFD4F5183408307C0F901EE0FFF1F47
:1004B000EA5CFD4F118210822F5F3F4F11968C91A5
:1004C000882339F7A9E1B1E020E030E041E050E0D5
:1004D00016C08E3251F0883789F4F901EE0FFF1FF4
:1004E000EE59FD4F5183408307C0F901EE0FFF1F06
:1004F000EE59FD4F118210822F5F3F4F11968C9164
:10050000882339F7A2E3B1E020E030E041E050E099
:1005100016C08E3251F0883789F4F901EE0FFF1FB3
:10052000E257FD4F5183408307C0F901EE0FFF1FD3
:10053000E257FD4F118210822F5F3F4F11968C9131
:10054000882339F7ABE4B1E020E030E041E050E04F
:1005500016C08E3251F0883789F4F901EE0FFF1F73
:10056000E654FD4F5183408307C0F901EE0FFF1F92
:10057000E654FD4F118210822F5F3F4F11968C91F0
:10058000882339F7A4E6B1E020E030E041E050E014
:1005900016C08E3251F0883789F4F901EE0FFF1F33
:1005A000EA51FD4F5183408307C0F901EE0FFF1F51
:1005B000EA51FD4F118210822F5F3F4F11968C91AF
:1005C000882339F7ADE7B1E020E030E041E050E0CA
:1005D00016C08E3251F0883789F4F901EE0FFF1FF3
:1005E000EE5EFC4F5183408307C0F901EE0FFF1F01
:1005F000EE5EFC4F118210822F5F3F4F11968C915F
:10060000882339F7A6E9B1E020E030E041E050E08E
:1006100016C08E3251F0883789F4F901EE0FFF1FB2
:10062000E25CFC4F5183408307C0F901EE0FFF1FCE
:10063000E25CFC4F118210822F5F3F4F11968C912C
:10064000882339F7AFEAB1E020E030E041E050E044
:1006500016C08E3251F0883789F4F901EE0FFF1F72
:10066000E659FC4F5183408307C0F901EE0FFF1F8D
:10067000E659FC4F118210822F5F3F4F11968C91EB
:10068000882339F7A8ECB1E020E030E041E050E009
:1006900016C08E3251F0883789F4F901EE0FFF1F32
:1006A000EA56FC4F5183408307C0F901EE0FFF1F4C
:1006B000EA56FC4F118210822F5F3F4F11968C91AA
:1006C000882339F7A1EEB1E020E030E041E050E0CE
:1006D00016C08E3251F0883789F4F901EE0FFF1FF2
:1006E000EE53FC4F5183408307C0F901EE0FFF1F0B
:1006F000EE53FC4F118210822F5F3F4F11968C9169
:10070000882339F7AAEFB1E020E030E041E050E083
:1007100016C08E3251F0883789F4F901EE0FFF1FB1
:10072000E251FC4F5183408307C0F901EE0FFF1FD8
:10073000E251FC4F118210822F5F3F4F11968C9136
:10074000882339F7A3E1B2E020E030E041E050E057
:1007500016C08E3251F0883789F4F901EE0FFF1F71
:10076000E65EFB4F5183408307C0F901EE0FFF1F88
:10077000E65EFB4F118210822F5F3F4F11968C91E6
:10078000882339F786E494E00E943302AAE4B4E0B7
:10079000EEE8F2E08CE201900D928150E1F7A6E7DD
:1007A000B4E0EAEBF2E08CE201900D928150E1F7C7
:1007B000A2EAB4E0E6EEF2E08CE201900D92815004
:1007C000E1F7AEECB4E0E2E1F3E08CE201900D92EF
:1007D0008150E1F7AAEFB4E0EEE3F3E08CE20190A0
:1007E0000D928150E1F7A6E2B5E0EAE6F3E08CE293
:1007F00001900D928150E1F7A2E5B5E0E6E9F3E062
:100800008CE201900D928150E1F7AEE7B5E0E2ECA9
:10081000F3E08CE201900D928150E1F7AAEAB5E095
:10082000EEEEF3E08CE201900D928150E1F7A6ED3F
:10083000B5E0EAE1F4E08CE201900D928150E1F73D
:1008400008954F925F926F927F928F929F92AF9294
:10085000BF92CF92DF92EF92FF920F931F93DF939D
:10086000CF93CDB7DEB7AC970FB6F894DEBF0FBE0F
:10087000CDBF3A012CE230E0829FF001839FF00D62
:10088000929FF00D1124DE011196E65BFB4F8CE286
:1008900001900D928150E1F7A4E0AA2EB12CA60E92
:1008A000B71ECC24DD242E010894411C511CF4E019
:1008B0008F2E912C860C971C26C0F7018081918188
:1008C000892B39F086E494E0602F4A2D0E94E001E4
:1008D00006C086E494E0602F4A2D0E9403020F5F59
:1008E0001F4F82E090E0E80EF91E0815190529F760
:1008F000E4E0F0E0CE0EDF1E0894A108B108F4E1B8
:10090000CF16D10439F07601EE0CFF1CE40CF51C77
:100910008301EBCFAC960FB6F894DEBF0FBECDBF10
:10092000CF91DF911F910F91FF90EF90DF90CF90CB
:10093000BF90AF909F908F907F906F905F904F90FF
:1009400008950F931F9300E00CC086E494E0612F9C
:10095000402F0E94E0011F5F1931B9F70F5F093185
:1009600011F010E0F2CF86E494E064E670E00E94BB
:100970009F0186E494E00E942A0286E494E064E603
:1009800070E00E949F011F910F9108958F929F9296
:10099000AF92BF92CF92DF92EF92FF920F931F938D
:1009A0000E94F20528EE33E040E050E00E944D0640
:1009B00079018A0126B183B190E08170907035E0B1
:1009C000880F991F3A95E1F72F71282B2093020683
:1009D00080910306281751F08091340290913502DE
:1009E00090930506809304062093030680913202BB
:1009F00090913302AA2797FDA095BA2F8E159F05D7
:100A0000A007B1070CF06AC0F0923302E092320204
:100A1000209104063091050637FF03C00E94A1040F
:100A200063C0C9016CE370E00E943A067B0184EC6C
:100A30009FEF689F5001699FB00C789FB00C112404
:100A4000A20EB31ECB016AE070E00E943A068B0151
:100A5000C5016AE070E00E943A066B01C8016AE0D5
:100A600070E040E050E00E942104B6EF8B2EBFEF13
:100A70009B2E089DC001099D900D189D900D11247D
:100A80008E0D9F1D6AE070E045E050E00E94210459
:100A9000C6016AE070E04AE050E00E942104C89C70
:100AA000C001C99C900DD89C900D11248A0D9B1DEE
:100AB0006AE070E04FE050E00E94210486E494E098
:100AC00064E670E00E949F01809104069091050603
:100AD0000197909305068093040606C086E494E08F
:100AE00064E670E00E949F011F910F91FF90EF90CC
:100AF000DF90CF90BF90AF909F908F90089586E445
:100B000094E00E9484011BB89FEF9AB981E085B9F7
:100B100098B98EEF84B917B826B183B190E081708F
:100B2000907045E0880F991F4A95E1F72F71282BA7
:100B3000209303068091340290913502909305062C
:100B40008093040608950E9400060E947F050E947B
:100B5000C604FDCF1F920F920FB60F9211242F9350
:100B60003F938F939F93AF93BF9380910A06909189
:100B70000B06A0910C06B0910D0630910E06019661
:100B8000A11DB11D232F2D5F2D3720F02D5701966C
:100B9000A11DB11D20930E0680930A0690930B06AB
:100BA000A0930C06B0930D0680910606909107065F
:100BB000A0910806B09109060196A11DB11D809370
:100BC000060690930706A0930806B0930906BF9106
:100BD000AF919F918F913F912F910F900FBE0F90EA
:100BE0001F9018958FB7F89420910A0630910B0644
:100BF00040910C0650910D068FBFB901CA010895AE
:100C0000789484B5826084BD84B5816084BD85B5E7
:100C1000826085BD85B5816085BDEEE6F0E08081AE
:100C200081608083E1E8F0E0808182608083808160
:100C300081608083E0E8F0E0808181608083E1EB87
:100C4000F0E0808184608083E0EBF0E0808181606F
:100C50008083EAE7F0E08081846080838081826025
:100C6000808380818160808380818068808310920E
:100C7000C100089597FB092E07260AD077FD04D0FE
:100C800027D006D000201AF4709561957F4F089503
:100C9000F6F7909581959F4F089597FB092E0526AD
:100CA0000ED057FD04D028D00AD0001C38F450953F
:100CB0004095309521953F4F4F4F5F4F0895F6F780
:100CC00090958095709561957F4F8F4F9F4F0895B8
:100CD000AA1BBB1B51E107C0AA1FBB1FA617B70762
:100CE00010F0A61BB70B881F991F5A95A9F780957E
:100CF0009095BC01CD010895A1E21A2EAA1BBB1B41
:100D0000FD010DC0AA1FBB1FEE1FFF1FA217B307D7
:100D1000E407F50720F0A21BB30BE40BF50B661FED
:100D2000771F881F991F1A9469F7609570958095B1
:100D300090959B01AC01BD01CF010895EE0FFF1FFF
:0C0D40000590F491E02D0994F894FFCF89
:100D4C007878782E20782E2E78207878782E207847
:100D5C002E2E78207878782E00782E2E7820782EEB
:100D6C002E78207878787820782E2E7820787878DD
:100D7C0078002E78782E20782E2E7820782E2E78CB
:100D8C0020782E2E78202E78782E002E2E782E205D
:100D9C002E2E782E202E2E782E202E2E782E202EB3
:100DAC0078782E0078787878202E782E2E202E2E9B
:100DBC00782E20782E2E78202E78782E0078787841
:100DCC002E202E2E2E78202E78782E202E2E2E7839
:100DDC00207878782E002E2E782E2078787878202F
:100DEC00782E782E202E78782E202E2E782E0078A5
:100DFC0078782E202E2E2E78207878782E20782E2B
:100E0C002E2E2078787878002E78782E20782E2E3A
:100E1C0078207878782E20782E2E2E202E78782E0A
:100E2C00002E782E2E202E782E2E202E2E782E2050
:100E3C002E2E2E782078787878002E78782E2078C0
:100E4C002E2E78202E78782E20782E2E78202E7824
:100E5C00782E002E78782E202E2E2E78202E787834
:100E6C007820782E2E78202E78782E0020001306ED
:060E7C0000000100580215
:00000001FF
